S02000006E63702D6C6F6361746F722D7461726765742D73696C6162732E73333713
S21400600000080020D56B0000D16B0000D16B0000AB
S214006010D16B0000D16B0000D16B0000D16B00008B
S214006020D16B0000D16B0000D16B0000D16B00007B
S214006030D16B000008290300D16B0000D16B000073
S214006040D16B0000D16B0000D16B0000D16B00005B
S214006050D16B0000D16B0000D16B0000D16B00004B
S214006060D16B0000D16B0000D16B0000D16B00003B
S214006070F1A40000D16B0000D16B0000ED670000BA
S2140060807D680000D16B0000D16B0000D16B000072
S214006090D16B000035710000D16B0000D16B0000A1
S2140060A0D16B00003D720000F5710000D16B00005E
S2140060B0D16B0000D16B0000D16B000049EE0200EE
S2140060C0F9ED0200F5ED020045E5020045EE02009E
S2140060D0FDED02001DEE020001EE0200A5EE02003C
S2140060E00DCB020089CC02008DEE0200D16B0000C1
S2140060F0D16B0000D16B0000D16B0000D16B0000AB
S214006100D16B0000D16B0000D16B0000D16B00009A
S214006110D16B0000D16B0000D16B0000D16B00008A
S214006120D16B0000D16B0000D16B0000D16B00007A
S214006130D16B0000D16B0000D16B0000D16B00006A
S21400614010B5054C237833B9044B13B1044800E06E
S21400615000BF0123237010BD5C1400200000000067
S214006160F070030008B5034B1BB10349034800E079
S21400617000BF08BD0000000060140020F07003009F
S214006180154B002B08BF134B9D46A3F5803A002104
S2140061908B460F461348144A121A2CF0A6FA0F4BD9
S2140061A0002B00D098470E4B002B00D098470020BD
S2140061B0002104000D000D48002802D00C4800E025
S2140061C000BF2CF02BFA2000290000F007F92CF075
S2140061D011FA00BF000008000008002000000000C0
S2140061E0000000005C1400208C6800200000000006
S2140061F00000000010B500F00FFCBDE810400422BF
S21400620000231146012003F02FBA00BF08B5012174
S2140062103D2001F0C9FF0121292001F0C5FF012121
S2140062203B2001F0C1FF01213A2001F0BDFF00F044
S21400623011FC00F099FCBDE8084000F065BC00BF0A
S214006240012304221846114603F00EBA4E4B30B511
S2140062501B688BB0C3F30743012B10D14B4B4FF495
S2140062608022596E41F2640549034FF0040458BF7A
S21400627042F2640146485A51046058BF5A50454C91
S21400628003AB94E8030005AD83E803000834184622
S21400629003F0F6F80FCC0FC53B4A2368D2F84C1132
S2140062A025F8023B1B0C2B700B0364D54FF6FF72D0
S2140062B0394B1B8893420CBF7823DBB28DF81D3018
S2140062C08DF81E30252405A802F0AAFC334800F0FD
S2140062D0F7FC334D0321802002F0D0FA95E8070042
S2140062E005AB03C3110C23F8022B05A819708DF813
S2140062F0154002F035FD4FF4004000F00BFD08217C
S2140063003E2002F0BBFA08214FF4C06002F0B6FA55
S21400631008214FF4F06002F0B1FA08212D2002F0B7
S214006320ADFA01213E2001F03FFF00240123296938
S21400633005A8ADF818108DF814308DF815408DF8B6
S21400634016408DF817408DF8184003F039FB0AA860
S21400635000F8244D03F01AF802A88DF808408DF8CE
S214006360094003F083F84FF04022536F43F00103D7
S21400637053670BB030BDD2F850318DF81D30D2F8CF
S21400638050318DF81E309DE70080E00F0080004001
S21400639020200140982A03000001E00F00F0490287
S2140063A0B42A030010B500F0D3F9B0F5B47F08D2D4
S2140063B0094C23680133B3F5803F236006DA0020DA
S2140063C010BD0022044B01201A6010BD00F0DEF85C
S2140063D000230120236010BD9014002070B5FFF745
S2140063E035FFFFF713FFFFF705FF2A4804F048FEC6
S2140063F098B918F077F918F0BDF918F07FF918F089
S214006400C5F918F087F918F091F918F053F918F053
S21400641099F918F05BF918F0A1F918F0C3F91E4EB7
S21400642018F0CCF91D4D00F03FFAFFF709FF04E025
S21400643000F00CF900F07EF950B100F041F9FFF7DA
S214006440B1FF90B900F002F900F074F90028F4D119
S21400645002F00EFD04F0DEFD04F046FD02F00AFD3B
S214006460EBE7FFF79FFF0028E2D004F0ACFD044600
S2140064700028DDD000F098FA30B923683340AB42EC
S21400648002D0204600F0B8F800F054F90028E8D012
S214006490CEE700BFC82A0300F800FFFFA0000300F5
S2140064A02DE9F0410446458983F00103ED1A88463C
S2140064B0164602F0E9FC2389ADB29D4260D91E2E35
S2140064C0074636D92389ED1AC5EB0515B6EB450FF9
S2140064D056D81E2E354628BF1E252088414600EB7E
S2140064E0C00004EB80002A4610302CF0DAF823882F
S2140064F022886089511C91FBF0F200FB121203EB1C
S214006500C30304EB830392B2DD602280E388761B2C
S21400651003F101039BB2E3802389A84403F101033E
S2140065209BB22381D5D1384602F0B2FC0120BDE8EB
S214006530F0812088414600EBC00004EB8000324624
S21400654010302CF0AEF8238822886089511C91FB0D
S214006550F0F200FB121203EBC30304EB830392B2C8
S214006560DE602280E388384601339BB2E3802389CD
S21400657001339BB2238102F08BFC0120BDE8F08141
S21400658002F086FC0020BDE8F08100BF10B40024B5
S214006590074B21461C8003F10C005C804FF4BD6263
S2140065A09C80DC801C815DF8044B2CF09EB800BFFC
S2140065B07C09002030B4012504210022044B054C40
S2140065C01D71206030BC19805A80FFF7DFBF00BF06
S2140065D00C0800209414002038B50D46054C0146E2
S2140065E02A46601D2CF05DF80023ADB2658023714D
S2140065F0238038BD0C080020014658B103680648C1
S2140066001A0202F4E062C3F307231A43043200239B
S214006610FFF746BF704700BF7C09002010B502F0A8
S21400662033FC094A91885389013191FBF3F404FB4A
S2140066301313BDE810409BB293801389013B9BB2B5
S214006640138102F025BC00BF7C09002070B51A4DEE
S214006650EB889BB2002B2ED0184E22E06C8802F0FE
S21400666017FCA4B204EBC404A4002B19D968103498
S214006670C9B2281933689847E8B902F005FC6A8859
S2140066806B89013292FBF3F101FB13239BB26B8003
S214006690EB88013B9BB2EB8002F0FAFBEB889BB2E7
S2140066A04BB102F0F1FBEC88A4B2002CD6D102F07C
S2140066B0EFFB2368FFDE70BD7C09002094140020E9
S2140066C038B5184C23791BBB23889BB203BBD4F880
S2140066D00500154A20F47F4323F0070393421BD09E
S2140066E004F1090104F0F0FE104A01231168104875
S2140066F00D682A0202F4E062C5F307252A43043235
S214006700FFF7CEFE01210422002321712280638040
S214006710BDE83840FFF79ABF04F1090000F094F98D
S214006720E2E700BF0C0800202000FF00681B0020E6
S2140067307C090020054B1A792AB9188880B2B0FA6D
S21400674080F0400970470020704700BF0C0800200A
S214006750044B1A895889801A0138C0EB0010400093
S214006760704700BF7C090020704700BF10B4044C7F
S2140067700A46044B014620685DF8044B01F0D8BC7D
S214006780700F00208967000019461046FFF746BFC5
S21400679038B5022004F066FC4FF4004542F248018A
S2140067A00D4C206803685A6E22F4E0225A665A6E30
S2140067B042F480225A665D50022101F081F9074BAF
S2140067C04FF4B4722068064901F07AFC054A064B7D
S2140067D012681A6038BD00BF700F0020696700009D
S2140067E09C14002008160020041600201F4B186872
S2140067F003689A6C120437D542F248024FF40041FF
S21400680030B51B4C9950236885B033B9042004F08A
S21400681029FCFFF7BDFF05B030BD0021256804AB9D
S21400682043F8041DCDE90111013D02AA01A9256026
S21400683001F0E6F901980028EDD002990329EAD97B
S2140068400C4B0D4C1A68130203F4E063C2F30722E4
S21400685013430433236023689942DCD32168FFF78F
S214006860BBFEFFF795FFD6E7704700BF700F00200E
S214006870041600209C1400209814002010B5094C23
S21400688023681B689B6C9B0400D410BD022004F098
S214006890E9FB42F248034FF4005122681268D150D7
S2140068A010BD00BF700F0020F0B540F20565002354
S2140068B04FF4E1344FF480520820072101270326C5
S2140068C08BB0ADF80E502A4D8DF80C308DF80D308B
S2140068D0ADF814308DF816308DF817308DF8193065
S2140068E08DF81B300294ADF81220224B224A234C1E
S2140068F08DF81A008DF81C10286801A9CDE9082328
S2140069008DF8186001948DF8107001F09DFA029BC6
S2140069101B4C9B091B482360FFF74CFE1A490F20AF
S21400692002F006FB1949102002F002FB4FF400416A
S2140069304FF4803242F24806154B2868C3F880119F
S214006940C3F8802119601A6012490368124A596612
S2140069509A51DA6C114942F42042DA64104B4FF433
S214006960B47201F0ADFB22680E4B1A600BB0F0BD9E
S214006970700F0020F40F0020740F00200000064067
S214006980081600206D670000ED6700007D680000B7
S21400699000E100E030002401FFFF01009C1400200D
S2140069A0696700000416002003681A4A23F47F4330
S2140069B023F0070393420ED110B54368044613F044
S2140069C0010012D15A0716D413F0020F18BF012087
S2140069D01B0702D410BD00207047002240F6092095
S2140069E0114617F0F1FD012010BD17F0E5FD6368B4
S2140069F001205A07E8D5002240F29510114617F0FC
S214006A00E3FD6368012013F0020F18BF01201B0787
S214006A10E0D5E2E7A000010330B50A4D87B001AC2F
S214006A200FCD0FC42B6801A94FF0FF30236022F072
S214006A3079FA20B901214FF0FF3022F076FA07B03C
S214006A4030BD00BF142B0300002240F28310114615
S214006A5017F016BE70B5012688B0264D02AC0FCDD5
S214006A600FC495E8030084E8030031463A2001F09D
S214006A709BFB3146282001F097FB1F4B02A91F48BD
S214006A8004938DF8166003F0D5F8334604220021EF
S214006A90022002F0E9FD324631460023022002F0D1
S214006AA0E3FD022133460846042202F0DDFD0422FF
S214006AB033461146002002F0D7FD4FF002150220A3
S214006AC01C2149F23D620E4B0E4CC3F83056C3F8FB
S214006AD02C46C3F83406C3F81C160192019B002B03
S214006AE005DD019B013B0193019B002BF9DC08B0FF
S214006AF070BD00BF282B030040420F0000C00540B9
S214006B0000C003400200010008B5002302201A4618
S214006B10194602F0A9FD002301211A46022002F0C0
S214006B20A3FD022101230846002202F09DFD00225B
S214006B3001231046042102F097FD094803F0FEF8F1
S214006B400023084A1946C2F830362820C2F82C36E8
S214006B50C2F83436C2F81C36BDE8084001F024BB43
S214006B6000C0054000C0034042F21003102170B57B
S214006B701424154A154DD150FF21284603F00AF972
S214006B80013CF9D141F2100310211E240E4A0F4D8C
S214006B90D150FF21284603F0FDF8013CF9D1052429
S214006BA0FF210A4803F0F6F8013CF9D142F210033F
S214006BB01026054DB921EE50044803F0EBF841F2DB
S214006BC010032046EE5070BD00C0034000C00540D4
S214006BD0FEE700BF08B500F019F8094B094A9342D2
S214006BE00CD2181D0332121A22F003020649024480
S214006BF051F8040B43F8040B9342F9D1FFF7C0FA9F
S214006C00000800205C140020FC700300044B054ABA
S214006C109A60D3F8882042F47002C3F88820704740
S214006C2000ED00E000600000094B1B6F03F0070357
S214006C30022B09D0032B04D0012B00D0FEE7054819
S214006C407047054B18687047044B1868704700BFBC
S214006C5000800040002D31017C10002078100020BC
S214006C600D4B1B6F03F00703022B12D0032B0DD026
S214006C70012B00D0FEE7094B0749094A086FC0F30D
S214006C8003300130B3FBF0F010607047054B1B6813
S214006C90F2E7054B1B68EFE700800040002D31014E
S214006CA0741000207C1000207810002000487047E8
S214006CB000B4C404014B1868704700BF7C10002065
S214006CC0054A064B10601B6F03F00703032B00D02A
S214006CD07047FFF7C5BF00BF7C1000200080004053
S214006CE0014B1868704700BF7810002000207047DE
S214006CF000487047002D31014FF40040704700BF38
S214006D004FF47A70704700BF014B1868704700BF99
S214006D1080100020014B1860704700BF80100020D4
S214006D202DE9F04F594C0646207885B014469DF85C
S214006D304C909DF84420002865D0072C5FD80F465D
S214006D400E9900295BD00F99002958D01299B1F5F9
S214006D50006F54DC012E4FD0DFF844814FEA041E4A
S214006D6008EB0E01097B002951D00020484D610137
S214006D70CDE90100039005EB010C002F49D16F50BF
S214006D809CF802A09CF803004AF0100A40F030007D
S214006D90CCE90177CCF80C708CF802A08CF80300D4
S214006DA0002A66D0129A685A013A62F30E106852A8
S214006DB000930D440E9BEA78AB600F9B69F3830249
S214006DC0012E6B60EA703ED0149B002B57D0002536
S214006DD0149B204648F80E30159BC644624669460A
S214006DE0CEF804308EF80D60CEF8085002F0D0FCD5
S214006DF0284605B0BDE8F08F10990029ACD125488B
S214006E0005B0BDE8F08F244805B0BDE8F08F2348F4
S214006E10F6E768509CF802B09CF803A04BF0100B05
S214006E204AF0030ACCE90100CCF80C008CF802B05A
S214006E308CF803A0002AB5D15FFA8AF242F030023D
S214006E408CF80320AEE713226FF0030AEA6005F120
S214006E50100995E80F0089E80F00EA69109B6AF3AD
S214006E609F02012FEA616B61B1D1109BA9616B6033
S214006E70ADE7C2B242F003028CF8032092E7AB788B
S214006E80149A62F30413AB70A1E700BF8C170020BE
S214006E908C160020018000F0028000F0078000F0D1
S214006EA00C160020114B1B788BB190B170B50546BF
S214006EB001F0EAFF0E4900230A46147B103254B153
S214006EC00133082BF9D101F0E3FF0A4870BD0A48E8
S214006ED070470A48704701262B601B01CA18CC5021
S214006EE0167301F0D5FF204670BD00BF8C1700203A
S214006EF00C160020048000F0028000F0018000F0F4
S214006F00002310B5164A82B0126801928DF804303C
S214006F1001F0BAFF134B1C78E4B901221A7001F095
S214006F20B7FF0422104B0DEB02001C731C7783F88E
S214006F302C4083F83C4083F84C4083F85C4083F850
S214006F406C4083F87C408DF8072002F0EBFB20466F
S214006F5002B010BD01F09CFF044802B010BD00BF97
S214006F60402B03008C1700200C160020038000F036
S214006F70F0B5002489B00F9D9DF8387001930092FB
S214006F809DF840600B46024602942146CDE9037503
S214006F902046119D129C0596CDE90654FFF7C0FECB
S214006FA009B0F0BDF0B5002489B09DF838700193A3
S214006FB00F9E00929DF840500B460246129902948E
S214006FC02046119C079103970496CDE905540121AC
S214006FD0FFF7A6FE09B0F0BD0A4A127872B107287C
S214006FE008B509D8084A02EB00131B7B43B1002101
S214006FF002F086FB002008BD044808BD0448704720
S214007000044808BD8C1700200C160020018000F0F4
S214007010028000F0078000F00A4A127872B1072852
S21400702008B509D8084A02EB00131B7B43B10121BF
S21400703002F066FB002008BD044808BD04487047FF
S214007040044808BD8C1700200C160020018000F0B4
S214007050028000F0078000F00A4A12786AB107281A
S21400706008B508D8084A02EB00131B7B3BB102F0B8
S214007070DFFB002008BD054808BD054870470548E9
S21400708008BD00BF8C1700200C160020018000F001
S214007090028000F0078000F00D4B1B78A3B1072894
S2140070A010D879B10B4B03EB00131B7B73B1012295
S2140070B0094B02FA00F0DB6A18401ABF00200A707B
S2140070C00870704705487047054870470548704780
S2140070D08C1700200C16002000000440018000F0F1
S2140070E0028000F0078000F00D4B1A7892B1072856
S2140070F00DD861B10B4A02EB00131B7B6BB110B5C8
S2140071000C4602F0A7FB00232060184610BD064B75
S21400711018467047054B18467047054B184670478B
S2140071208C1700200C160020018000F0028000F072
S214007130078000F02DE9F8431C4B1F6D5B6D1F4068
S21400714033D4012600251A4CDFF86890DFF86880F3
S21400715006E00135082D4FEA460604F1100422D059
S2140071603742F6D02368C9F80060002BF1D0D4E986
S21400717001210131A16028469847637B012BE8D1A5
S2140071800028E6D108EB4513197B1A7F013560F31A
S214007190410160F34102082D19731A774FEA46063B
S2140071A004F11004DCD1BDE8F883FEE700000440DB
S2140071B00C160020502004408C1600204FF0007162
S2140071C04FF08062034BC3F880111960C3F880212A
S2140071D01A60704700E100E038B504460D4601F03D
S2140071E053FE034B43F82450BDE8384001F050BE30
S2140071F09017002045F2555142F220420D4B70B5D3
S214007200D3F82444D3F8200404400C409C507CB1AE
S2140072100126094D94FAA4F0B0FA80F055F8203013
S21400722006FA00F224EA020403B19847002CF1D1D2
S21400723070BD00BF00C00340901700204AF6AA2188
S21400724042F220420D4B70B5D3F82444D3F8200404
S21400725004400C409C507CB10126094D94FAA4F0E1
S214007260B0FA80F055F8203006FA00F224EA02045C
S21400727003B19847002CF1D170BD00BF00C0034099
S21400728090170020704700BF32B1043950F8043B15
S214007290013A41F8043FF9D10020704770B59400D8
S2140072A0224605460E462BF00FFB431C0DD050B968
S2140072B02246314628462BF0E5F9054B00280CBF40
S2140072C00020184670BD034870BD034870BD00BF5F
S2140072D010E000F024E000F021E000F02DE9F04896
S2140072E082B0044601A802F09FFB4FF480730D4A5B
S2140072F063809368956CD26C4FF0000B9446012225
S214007300674658460A339DF8061003F01F034BEAFB
S214007310050602FA03F321806360C4E9026702B03F
S214007320BDE8F0880080E00F02F0C8BA08B502F0A9
S214007330AFFA002008BD00BF10B504462BF0DCFAFB
S214007340431C1BD0C0B901200E4B9B680A3303F0C8
S2140073501F03984083080DD02268013210D1221FE7
S214007360204602EB830303E050F8042F013207D1D6
S2140073709842F9D1002010BD034810BD034810BD47
S214007380034810BD0080E00F24E000F021E000F08C
S2140073900EE000F008B501F06FFD014B186008BD67
S2140073A0B04D0020014B186801F06ABDB04D0020BA
S2140073B008B5034B1B6803B19847012008BD00BF02
S2140073C0F41A002070B500250A4B0B4A1D800B4CA2
S2140073D00B4B1060C4E9003102F090FA430700D46A
S2140073E070BD02F083FA6368002BF9D0BDE87040E8
S2140073F004201847F01A0020F41A0020F81A00207B
S214007400B17300002DE9F84301F036FD2A4E074619
S214007410347814B901F09EFE3478284D4FF00009F8
S214007420DFF89C802B68CCB9727822BB13B103209E
S214007430984738B1002001F01BFE03246B680BB19F
S21400744020469847AB6803B32046984710F0010FD4
S21400745081461DD034782B68002CE5D013B101206E
S214007460984730B3D8F8103023F00403C8F810302B
S21400747030BF0124E2E71BB1022098470028E1D084
S214007480002001F083FD0224D8E719F0010FE1D1B6
S214007490A31E012B05D9384601F0F2FC2046BDE8B4
S2140074A0F88301F071FE384601F0EAFC2046BDE89C
S2140074B0F8830446C6E700BFF01A0020F81A00203A
S2140074C000ED00E00238C3B2012B03D8024A135C79
S2140074D001331354704700BFF01A00200238C3B2BD
S2140074E0012B00D97047034A135C002BFAD0013BEE
S2140074F013547047F01A0020054B1A782AB95B78A7
S214007500002B0CBF0320022070470120704700BFED
S214007510F01A002038B504460D4601F0B5FCA388E5
S2140075209BB253B1638803EB830304EB83040834F4
S2140075302C6001F0ADFC002038BD2B6001F0A8FCEB
S214007540004838BD0B7000F070B504460D4601F0DB
S2140075509BFCA3889BB2BBB163886288E688511CFB
S21400756091FBF6F206FB121203EB830304EB830394
S21400757092B208332B606280A388013B9BB2A38043
S21400758001F086FC002070BD2B6001F081FC0148F4
S21400759070BD00BF0B7000F030B504460D4683B0DA
S2140075A0C07EE17FFDB10123042202F05DF80123D5
S2140075B0022294F82010207F02F056F894F8353016
S2140075C0022B3CD0032B1FD194F82110607F0023A0
S2140075D0012202F049F80023042294F82210A07F2A
S2140075E002F042F810E02B462A4602F03DF82B4601
S2140075F02A4694F82010207F02F036F894F83530AA
S214007600022B04D0032B32D0002003B030BD2B4613
S2140076102A4694F82110607F02F026F82B462A4668
S21400762094F82210A07F02F01FF8012394F821207E
S214007630607F1146CDE9003501F0BEFFE4E794F81F
S2140076402110607F0023012202F00EF894F8221029
S214007650A07F0023042202F007F8012394F82120DB
S214007660607F1146CDE9003301F0A6FFCCE72B463C
S2140076702A4694F82110607F01F0F6FF2B462A4632
S21400768094F82210A07F01F0EFFFBDE7012290F8EA
S214007690363080F830209BB90368243370B5D1E9C2
S2140076A000250026012486B0049002964169C06831
S2140076B00094084C01950394FFF774FC06B070BD67
S2140076C0022B03D0002380F8303070470368343331
S2140076D0E4E700BF497D0000012290F8363080F8CC
S2140076E031202BB1022B03D0002380F831307047B5
S2140076F0026870B5D1E900350026012486B00490F2
S2140077000296016980680094034C3C32019503940C
S214007710FFF72EFC06B070BD1D770000F0B583B0F5
S214007720D06A01A91446FFF7F5FE154B98421BD008
S2140077300025019B1D619D6001F0A6FB019A07468E
S214007740D66826B1D2E9002329462046B04701A9CB
S214007750E06AFFF7F9FEE06A83889BB23BB984F8DB
S2140077603130384601F094FB012003B0F0BD01A98A
S214007770FFF7D0FE20460199FFF7AEFFF1E700BF06
S2140077800B7000F0437F064A03EB43031B011A44C9
S21400779090F821301068D84000F00100704700BF14
S2140077A014C0034010B51D4B82B003F1100153F80E
S2140077B0044B94F82120824203D08B42F7D102B0CA
S2140077C010BD94F83530022BF9D12046FFF7DAFFCA
S2140077D0637E2076022BF2D194F8323003F0FF025B
S2140077E0002BECD102A901F8012DA068FFF754FC8C
S2140077F0237E63B194F833304BB90028DFD19DF86F
S2140078000730002BDBD0A068FFF7E6FBD7E70023A6
S214007810A06884F83330FFF7FFFBD0E7041B002096
S21400782010B50446FFF76CFB04F108000021FFF7D3
S21400783039FB30B9014604F10C00FFF733FB00B901
S21400784010BD014810BD00BF0E7000F090F8363035
S2140078504BB1022B00D070470068016C11F002019A
S21400786011D101F09BBE30B4022142F21C64042503
S214007870037902685B0103F1804303F570331D5101
S214007880516130BC7047062101F088BE90F8363052
S21400789083B90123026853619369D907FCD541F285
S2140078A01C62042103795B0103F1804303F5703306
S2140078B099507047022B00D070470068036C9B07F6
S2140078C002D4092101F06ABE052101F067BE00BF9F
S2140078D0F8B5044615200D46164601F0DBFA0746B5
S2140078E0E26A04E094F832302BB9002F35D1938841
S2140078F09BB2002BF6D194F836303BBB20688769E4
S21400790017F0020756D10423436183699B07FCD511
S21400791041F21C614FF0100C012223795B0103F148
S214007920804303F5703343F801C084F834203EB139
S2140079302E4415F8011B02F037FAB5422068F8D13C
S21400794083699A06FCD55FB10020F8BD022B19D0DA
S2140079500123002084F83430F8BDFFF7EBFBBFE7C7
S21400796094F8363053BB42F21C6010250821237968
S21400797022685B0103F1804303F570331D505161AB
S2140079800020F8BD2068076C17F0020724D00123FA
S21400799084F834303EB12E4415F8011B01F006FE83
S2140079A0B5422068F8D142F22002036C32EA0303A3
S2140079B0FBD1C8E7012384F83430B8E7022BC3D1E3
S2140079C02068036CDB074CBF0921394601F0E6FD51
S2140079D002220C4B1A60B7E7036CD9074CBF05218F
S2140079E0062101F0DBFD02200122074994F836301B
S2140079F0086084F834200BB9206898E7022BA3D1DE
S214007A002068C7E7C0E40340C0D4034010B590F830
S214007A1032300446012B07D094F832300020013B68
S214007A20DBB284F8323010BD90F83530022B03D02C
S214007A30A068FFF7F1FAEFE7FFF7A4FE0028F7D0FB
S214007A40EAE700BFF8B5044617460D4601F01CFAF3
S214007A50A388E2889A422BD9268884460FCD06EB67
S214007A608606B600083604EB060EA051CEF80410C3
S214007A70CEF80820CEF80C302868CEF81000238800
S214007A802288E088511C91FBF0F200FB121203EBF7
S214007A90830304EB830392B208333B602280A388FF
S214007AA0604601339BB2A38001F0F2F90020F8BDD6
S214007AB000233B6001F0ECF90048F8BD0A7000F0C6
S214007AC0002847D02DE9F0410D4682B0044601F06B
S214007AD0DBF9012D064619D0022D3DD1A36A9B88FD
S214007AE09BB2002B44D0E068FFF7B6FA0023A06AEA
S214007AF084F8303083889BB2002B5ED194F8353002
S214007B00032B1CD02046FFF7A1FE18E0E36A9B88F3
S214007B109BB2002B2CD0A068FFF79EFA0023E06AE9
S214007B2084F8313083889BB243BB94F836302168A2
S214007B3063B98A699204FBD5023D012DD3D930463C
S214007B4001F0A6F9002002B0BDE8F081022BEFD1CB
S214007B500A6CEFE727487047032DEDD1E36A9B8850
S214007B609BB2002BD7D1A36A9B889BB2002BD2D1A5
S214007B7001F08EF9204802B0BDE8F08101A9FFF7B8
S214007B80C9FC0199A0680831FFF7AEFA1B4B019AB1
S214007B909846136105E001A9FFF7D6FC019BDF6854
S214007BA02FB9E06A83889BB2002BF4D1BDE79B68AF
S214007BB0002241462046B847F3E76946FFF7AAFC8D
S214007BC00099E0680831FFF78FFA0C4F009B1F61A1
S214007BD0A06A83889BB2002B90D06946FFF7B4FC5E
S214007BE0009BDD68002DF3D09B68002239462046B6
S214007BF0A847EDE7027000F0087000F0097000F08A
S214007C002DE9F04100250446806A0E46818882B040
S214007C1089B217469846CDE90055A1B90021C8F8A3
S214007C2000103960316094F836303BB1022B12BF39
S214007C3000202368186C02B0BDE8F08123689869BC
S214007C4002B0BDE8F0816946FFF764FC01A905466D
S214007C50E068FFF749FA009A002ADFD0002DDDD150
S214007C60D2E9002301995B1A3B60C8F80010326025
S214007C70D9E700BF98B110B590F83230044633B952
S214007C8090F83530022B0CD0A068FFF7A5F994F8D1
S214007C90323000200133DBB284F8323010BD0348A6
S214007CA07047FFF76FFD0028EED0F0E7027000F097
S214007CB070B590F8355082B0022D04461AD0012DCA
S214007CC002D0002002B070BD037E002B37D01323F5
S214007CD002AE06F8013DFFF7CDFF2A4631462046A4
S214007CE0FFF7F6FD94F83230002BEAD02046FFF777
S214007CF08DFEE6E7012190F82220407E9140A27F8B
S214007D0080B101281DD0237EDBB942F2100002EBC1
S214007D1042031B0103F1804303F570331950002022
S214007D2002B070BD42F21003002002EB42021201C4
S214007D3002F1804202F57032D15002B070BD1123BC
S214007D40C6E741F21000E2E770B582B0906A01A97A
S214007D501446FFF7DFFB394B984237D094F83620AD
S214007D60019B002A35D12068816C11F4007108D07F
S214007D7042F248014FF400759A60314A1A61455044
S214007D8005E0826CD50544D400221A619A6001F0A1
S214007D907BF801990646CD6835B1D1E900208B689D
S214007DA00969C31A2046A84701A9A06AFFF7CCFBB9
S214007DB0A06A8588ADB2EDB101A9FFF7ABFB2046FE
S214007DC00199FFF763FC304601F062F8012002B02B
S214007DD070BD022AD8D121684A6C12F4007221D0F4
S214007DE0002542F244024FF400709D60144D1D6160
S214007DF08850CCE7012320462376FFF759FF94F8F6
S214007E00353084F83050032BDDD02046FFF71EFDBA
S214007E10D9E742F248024FF4807599600949196122
S214007E208550B4E7486CC005AED542F244004FF426
S214007E3080759A60034A1A610D50A8E70B7000F02F
S214007E400D7000F00C7000F02DE9F047064688B083
S214007E50904D01AC0F460FCD0FC495E8070084E89F
S214007E600700BEB1002F00F0C2803C220021304641
S214007E702AF03BFC884A3D46137834467BB1874956
S214007E800023084650F8042B82B194420ED00133EA
S214007E90042BF7D1824E304608B0BDE8F0870120AB
S214007EA07E491070C1E90033C1E90233002241F86F
S214007EB02340297D2B6884F8362084F8351023600B
S214007EC0784A297B9342217100F09680764A934245
S214007ED040F08D804FF4A0222921744BA184C4E980
S214007EE00432D5E9072300264FF0050AB5F810E05E
S214007EF095F812C0B5F80E80EF7CD5F804900121F5
S214007F00A2623A20168056809680E36284F830603B
S214007F101E805E809E8084F8316084F83360ADF801
S214007F2012E08DF810C0ADF814808DF816708DF83C
S214007F3011A0CDF80C9000F037F90121A08C00F0CC
S214007F4033F901A928688DF8046001F0C9FD1422F0
S214007F502B7B574F287A07EB4313C3F81C26AA7AC5
S214007F60697A40EA0242C3F83426EA7A6E7D41EA2C
S214007F700242C3F82C2695F80A8095F80BE095F88F
S214007F8016C02A7EEB7DE0762177667784F81F8020
S214007F9084F820E084F821C084F82220A377012109
S214007FA02046FFF7F9FA064600287FF474AF00F083
S214007FB06BFF95F814808146B8F1030F24D0B8F112
S214007FC0020F4FD042F248034FF0FF322868C250EB
S214007FD0042101F073FD4FF440622B6820465A617D
S214007FE0FFF71EFC0646484600F052FF53E7314EA8
S214007FF0304608B0BDE8F08728214FF480222E4B8B
S214008000A184C4E904326CE741F21C604FF0020A16
S21400801041F25C024FF0040841F2286E41F2246CF3
S21400802042F248014FF0FF362B7B07EB431747F829
S21400803000A028685B0140F802802F7EEA7D03F1ED
S214008040804342EA074203F5703343F80E20AF7DC3
S2140080506A7D42EA074243F80C204650052101F0AB
S2140080602DFDB8E7154994F82100FFF7B5F8FFF79E
S214008070A5F8A676267684F819802046FFF718FE1F
S21400808042F248024FF0FF312B7D2868032B8150C7
S2140080909ED1E3E7882B0300141B0020041B00205E
S2140080A0027000F000C00540000006400200050017
S2140080B000C00340037000F002000400A577000033
S2140080C070B586B050B329B3541EB4F5006F21D2F4
S2140080D01446144E019105466A4601A9806A029428
S2140080E00394CDE90436FFF7ADFC044698B995F83D
S2140080F0303083B92846FFF7C9FB00992846FFF7BA
S214008100C5FA95F83530032B05D02C762846FFF7B0
S214008110CFFD00E0044C204606B070BD034C204660
S21400812006B070BD017000F0037000F0027000F041
S21400813070B586B028B301B3541EB4F5006F1CD2D8
S2140081401446164E019105466A4601A9C06A029475
S2140081500394CDE90436FFF775FC044670B995F82C
S21400816031305BB900F090FEEB6A06469B889BB206
S2140081705BB9304600F08CFE00E0094C204606B0A5
S21400818070BD084C204606B070BD00992846FFF723
S214008190A3FA012385F83430EBE700BF017000F046
S2140081A0037000F0027000F0420930B40AD0012AD1
S2140081B017D0022A0C4D0D4A0D4B0E4C04BF2B4611
S2140081C0144603E04FF480534FF400540122002974
S2140081D008BF234630BC00F01F0002FA00F018600B
S2140081E07047054B054CF1E76890004068A00040DA
S2140081F06092004060A200406490004064A000408E
S2140082003E2808B570D01FD9B0F5007F00F0E68094
S21400821035D9B0F5A06F56D03CD9B0F5D06F00F088
S214008220CA8040F29680B0F5E06F5DD0B0F5F06F92
S21400823065D18B4BD3F8603103F00303022B5AD180
S214008240BDE80840FEF760BD2B2860D06AD931280B
S2140082502BD93C28EDD83A2880F0A380382832D095
S21400826039284CD17E4BD3F8243103F00703013B69
S214008270052B44D8DFE803F069C879D069C85228CE
S21400828058D040F28980802840F0CA80BDE8084077
S214008290FEF7CABCB0F5607F73D032D9B0F5806FF8
S2140082A048D0B0F5906FDDD029E02F2879D22D2860
S2140082B000F081802BD86A4BD3F8403103F00303DB
S2140082C0022B18D1BCE7664AD2F8203203F003032B
S2140082D0012B00F09380022B11D1D2F8403103F02D
S2140082E00303022B07D1ABE75D4BD3F8403203F014
S2140082F00303022BA4D0032B3FD0012B39D0002040
S21400830008BDB0F5207F4CD0B0F5407FF7D1FEF722
S214008310A7FC534B1B6FC3F380230133B0FBF3F072
S214008320400808BD23283CD040F28780292813D86F
S214008330282836D24A4BD3F8203103F00303022B09
S21400834062D0032B11D0012BD9D1BDE80840FEF72F
S214008350C7BCB0F5B06F4CD1414AD2F8803103F0BB
S2140083600303012B4AD0022BC9D1BDE80840FEF713
S214008370BFBCBDE80840FEF7BFBCBDE80840FEF73E
S214008380BFBCFEF751FC364BD3F88030C3F3011365
S2140083900133B0FBF3F008BD4D284AD05CD83F2827
S2140083A0ADD1FEF75DFC2E4B1B6FC3F3802301336C
S2140083B0B0FBF3F008BD2A4BD3F8003203F00703F6
S2140083C0013B032B9BD801A252F823F073830000D5
S2140083D0418200007B83000011840000FEF724FC2D
S2140083E01F4BD3F89030C3F304630133B0FBF3F0B4
S2140083F008BDB0F5C06F3FF45EAF80E7D2F820311D
S21400840003F00303022B9CD1BDE80840FEF752BCE4
S214008410FEF726FC800A08BDBDE80840FEF766BCED
S21400842016D9B0F5807F3FF446AFB0F5C07F7FF435
S21400843066AFBDE80840FEF713BC2028F9D004D983
S2140084402128AED02228F4D059E70028F1D056E7EC
S21400845060380128EDD952E74F28EAD24FE700BF2F
S2140084600080004038B5441EFEF720FC41F268024A
S2140084704FF4003141F67135444B99501B6F444917
S214008480C3F3033303FB0000CA69CD638B6841491D
S21400849023F4401388423E4988BF43F4801302F415
S2140084A080328B600AB10023CB6341F270024FF436
S2140084B08030364B196F41F48061196798501A6FF7
S2140084C022F4704242EA04321A67FEF7C9FB324AC7
S2140084D0136813F01003FBD14FF04022D2F884202B
S2140084E0C2F38112C2F10202002A2DDD41F26800B9
S2140084F04FF4003541F671342449254A0D50096F72
S214008500D069D463916821F440119160C10319D4F5
S214008510FEF7A6FB214A1D4C90428CBF4FF48062AA
S2140085200022236F802023F4806313432367FFF722
S21400853067FE184B984204D842F270034FF480321C
S214008540E25038BDD363E3E741F268014FF40035EB
S21400855041F671340D4A0E4B5550116FDA69C1F36E
S214008560033101FB0000DC639B680A4923F44013D7
S2140085708842074988BF43F4801302F480328B6038
S214008580002AC5D00023CB63C2E700BF00800040AE
S21400859000000340005A62028440004080F0FA0265
S2140085A0B0F5007F1FD012D9B0F5207F09D0B0F506
S2140085B0607F16D10F4BD3F88000C0F30110013056
S2140085C070470C4B186FC0F380200130704710B115
S2140085D0B0F5C07F05D1074B186FC0F303300130EC
S2140085E0704701207047034BD3F89000C0F3046037
S2140085F00130704700800040B0F5007F21D019D9C7
S214008600B0F5207F0DD0B0F5607F26D1134A013932
S214008610D2F8803023F0300343EA0111C2F880100C
S21400862070470E4A0139136F23F4806343EA8121B1
S2140086301167704710B1B0F5C07F0DD10846FFF73F
S21400864011BF064A0139D2F8903023F0F85343EAB6
S2140086500161C2F890107047704770470080004074
S214008660B0F5807F08B500F091801ED9B0F5C06FD8
S21400867000F08C8030D9B0F5F06F00F0C98044D996
S214008680B0F5006F69D0B0F5086F4FD17A4BD3F8CC
S214008690003103F00303022B5BD0032B00F0C480F1
S2140086A0012B00F08180012008BD2D2800F09D8060
S2140086B07ED93D2800F0AC803AD93E282BD08028C1
S2140086C034D16D4B1B6F03F00703013B032B2DD8F2
S2140086D0DFE803F019816CACB0F5906F3DD040F246
S2140086E09F80B0F5A06F25D0B0F5B06F1ED1624A5E
S2140086F0D2F8803103F00303012B00F0A580022B93
S21400870014D1FEF7F5FA022008BDB0F5D06F6CD094
S214008710B0F5E06F0AD1584BD3F8403203F00303AC
S214008720022B16D0032B5CD0012B56D0002008BDA0
S2140087303828FBD1504AD2F8203203F00303012B2D
S2140087402CD0022BF2D1D2F8403103F00303022BD7
S214008750E8D1FEF7D9FA082008BD474BD3F82431F4
S21400876003F00703013B052BE0D801A252F823F0E3
S214008770D3870000A987000003870000298800002F
S21400878041880000398800002C28CFD13A4BD3F816
S214008790403103F00303022BC4D1DAE7D2F82031CC
S2140087A003F00303022B10D1FEF784FA032008BD62
S2140087B02A289CD0E8D824380328B7D82E4BD3F8DC
S2140087C0203103F00303022BEED0032B99D0012BAC
S2140087D0ACD1FEF785FA052008BDFEF78DFA092014
S2140087E008BDFEF78DFA0A2008BD234BD3F80032E9
S2140087F003F00703013B032B98D801A252F823F09D
S214008800DB87000053870000E38700003188000004
S214008810194BD3F8603103F00303022B82D198E79B
S214008820B0F5806FCAD081E7FEF760FA072008BD72
S214008830FEF716FA0C2008BDFEF73CFA042008BD29
S214008840FEF74EFA062008BDD2F8203103F00303E7
S214008850022B0DD0032B07D0012B01D00D2008BD15
S214008860FEF73EFA0D2008BDFEF742FA0D2008BDC1
S214008870FEF720FA0D2008BD00800040B0F5807F8E
S214008880F8B500F0948021D9B0F5C06F00F08F8065
S21400889034D9B0F5F06F00F0C7804AD9B0F5006F54
S2140088A071D0B0F5086F10D10339C9B205298CBF55
S2140088B00021B94BB94A98BF53F82110D2F80031BD
S2140088C023F003030B43C2F80031F8BD2D2800F057
S2140088D099807ED93D2800F0A78042D93E282ED028
S2140088E08028F2D18B1E052B00F25081DFE813F0B2
S2140088F0480138014E01B2004E014B01B0F5906FB1
S21400890041D040F2A380B0F5A06F2CD0B0F5B06F88
S214008910DBD1022904D0A1F10D01B1FA81F1490998
S2140089209E4AD2F8803123F003031943C2F880111F
S214008930F8BDB0F5D06F65D0B0F5E06FC5D1083999
S214008940C9B202298CBF0021954B944A98BF53F8B0
S2140089502110D2F8403223F003030B43C2F8403212
S214008960F8BD3828B1D10D2900F013810E290CBFAF
S21400897002210021894AD2F8203223F003030B4358
S214008980C2F82032F8BD0239C9B205298CBF0021D1
S214008990844B824A98BF53F82110D2F8243123F032
S2140089A007030B43C2F82431F8BD2C288DD10839B3
S2140089B0C9B202298CBF00217B4B784A98BF53F876
S2140089C02110D2F8403123F003030B43C2F84031A4
S2140089D0F8BD2A289DD0E8D8243803283FF675AF7E
S2140089E00239C9B203298CBF0021704B6B4A98BF6D
S2140089F053F82110D2F8203123F003030B43C2F8BA
S214008A002031F8BD0839C9B204298CBF0021684B53
S214008A10624A98BF53F82110D2F8003223F00703B9
S214008A200B43C2F80032F8BD0839C9B202298CBF20
S214008A300021604B594A98BF53F82110D2F8603194
S214008A4023F003030B43C2F86031F8BDB0F5806F26
S214008A50C6D03AE70025022602200C46012100F087
S214008A6043FCFEF723F941F268024FF4003141F669
S214008A7071374A4B99501B6F4F49C3F3033303FBBF
S214008A800000CA69CF638B684C4923F440138842C0
S214008A90494988BF43F4801302F480328B600AB1E0
S214008AA00023CB6341F270014FF480303B4B1A6FCA
S214008AB042F480621A6758501A6F22F00702324357
S214008AC01A67FEF7CDF83E4A136813F01003FBD181
S214008AD04FF04022D2F88420C2F38112C2F1020283
S214008AE0002A73DD41F268004FF4003741F6713614
S214008AF02A49314A0F50096FD069D663916821F42C
S214008B0040119160C10300D5D3630121002000F01D
S214008B107BFB4FF4C070FFF773FB2A4A1F4E904250
S214008B208CBF4FF480620022336F802023F4806372
S214008B3013433367FFF764FB204B984204D842F296
S214008B4070034FF48032F250002D7FF4BEAE032C3B
S214008B507FF4BBAE42F2280301211B4AD150F8BD78
S214008B604FF4002641F2640441F2280201200B4D26
S214008B70154B2E519D6A03269850C5F340056BE7AA
S214008B800025012668E70025042665E700252E4611
S214008B9062E70121EEE600BFEC2B030000800040F8
S214008BA0B42B0300C02B0300B42B0300A42B03003C
S214008BB0D82B0300B42B030000000340005A6202C7
S214008BC08440004080F0FA0200C0004041F2680293
S214008BD04FF4003641F671310E4B9E501A6F03F576
S214008BE02033C2F3033202FB0000DA69D9639B68C4
S214008BF0094923F440138842084988BF43F4801388
S214008C0002F480328B60002A3FF47FAF0023CB63F0
S214008C107BE700BF00800040005A6202000003406D
S214008C204B490B6F03F00703032B5ED0494B2DE92E
S214008C30F04145F60E0C41F2640E4FF4002841F266
S214008C402806022742F2280401251A4641F80E801B
S214008C50C3F880C09F511D51936DD903FCD443784F
S214008C60017884791B0543EA0163C17823430479BC
S214008C7043EA0143417943EA043343EA8113017A24
S214008C80C4791361C57A0B0643EA8463447A817A11
S214008C902B4343EA044343EA01239361136A867B2A
S214008CA0C57B077B90F80DC023F00D0376012D01E0
S214008CB0BF00017C447CBCF1000F17D043F00803D2
S214008CC043EA0C033B431362936A23F033032343C4
S214008CD033432B4343EA41039362837C1BB11D4B12
S214008CE01D4AC3F88020BDE8F08170473B431362FD
S214008CF0936A184F23F0330343F0010333432B43A7
S214008D009362164ABB6D32EA0303FBD1022341F29B
S214008D102805104A7B513B65936D5B00FCD441F2FD
S214008D2018054FF000461369877823F4700343EA6A
S214008D3007531361565119B942F228030221D15044
S214008D40002CCAD142F228030121024AD150C4E7BE
S214008D500080004000C00040F1A7FFFF0300014074
S214008D602DE9F04F41F2040C022641F264094FF45B
S214008D70800B4FF4D15844781B49DFF870A08578F3
S214008D80C27890F800E04F2C4AF809B04FF001077F
S214008D90C1F8248041F80C6042F2040628BF4F2434
S214008DA00B468F511969C903FCD4C17916010A0113
S214008DB0817946EA0525467942EA4112417A0779E1
S214008DC03543067A0A43817A44EA0E2445EA470583
S214008DD042EA46025C619D605A6011B16FF4D1525E
S214008DE05A62BDE8F08F00BF0000024000800040DD
S214008DF0002930B441F2680113DD4FF4003441F627
S214008E007130184A184B5450126FD969D8639A6853
S214008E1022F440129A60CA0301D50022DA6330BCFD
S214008E2070474FF4003541F671340E4A0E4B5550DC
S214008E30116FDA69C1F3033101FB0000DC639B6844
S214008E400A4923F440138842074988BF43F4801335
S214008E5002F480328B60002AE1D030BC0023CB6362
S214008E60704700BF0080004000000340005A6202C6
S214008E7072B6704762B67047EFF3108072B67047EE
S214008E8000B962B6704700BFEFF3108072B6704745
S214008E90FFF7F6BFEFF31083DA0732D4214A43090F
S214008EA052F82330C1B210B401F01F04E340DB07D0
S214008EB023D5002827DB104490F800030209EFF3BF
S214008EC0118313B1B2EB131F17D217494868C0F3CA
S214008ED0080098B11038C0B243B2002B1ADB03F179
S214008EE0604303F5614393F800030009824234BFF0
S214008EF0002001205DF8044B704701205DF8044B0C
S214008F00704701207047094B01F00F010B44187E93
S214008F100209D4E700F00F03043B0B44187E000957
S214008F20E4E700BF00E100E000ED00E0FCEC00E05C
S214008F30024B9B6803EB80000164704700ED00E085
S214008F40F0B4049F9DF8145053B1002465B1A142BB
S214008F5013D950F8246042F824600134A342F5D1B6
S214008F60F0BC074B9A607047A14252F8246002D9C1
S214008F70002EF2D1EDE7002EEFD142F82470ECE798
S214008F8000ED00E0704700BF704700BF70B590B9B5
S214008F90334A136943F004031361FFF7F3FFFFF747
S214008FA06BFF29F099FCFFF76BFFFFF7EDFFBDE8BD
S214008FB07040FDF755BE002541F264014FF40030C5
S214008FC0284C294B294A256058505268012A02D15C
S214008FD0D3F800312360224A136943F00403136177
S214008FE0FFF7D0FFFFF748FF29F076FCFFF748FFB2
S214008FF0FFF7CAFF23687BB11C4C6268012A0BD0BE
S214009000194A8020C2F80031FFF72AFB052804D051
S21400901041F204030122E25070BD4FF4C070FFF726
S214009020BFFA0128044615D0104B42F21005072659
S21400903041F2040101201A465E5158501369DB07BD
S214009040FCD5012CE8D12146BDE870404FF4C07035
S214009050FFF7D2BA02214FF4C070FFF7CDFAE3E76C
S21400906000ED00E0181B00200080004000C001401A
S21400907070B590B9334A136943F004031361FFF7E0
S21400908081FFFFF7F9FE29F027FCFFF7F9FEFFF74F
S2140090907BFFBDE87040FDF7E3BD002541F26401AB
S2140090A04FF40030284C294B294A25605850526806
S2140090B0012A02D1D3F800312360224A136943F013
S2140090C004031361FFF75EFFFFF7D6FE29F004FCEA
S2140090D0FFF7D6FEFFF758FF23687BB11C4C62688B
S2140090E0012A0BD0194A8020C2F80031FFF7B8FADF
S2140090F0052804D041F204030122E25070BD4FF46B
S214009100C070FFF74DFA0128044615D0104B42F206
S2140091101005072641F2040101201A465E515850F8
S2140091201369DB07FCD5012CE8D12146BDE8704069
S2140091304FF4C070FFF760BA02214FF4C070FFF71B
S2140091405BFAE3E700ED00E0181B0020008000401B
S21400915000C0014030B441F2640000254FF40034F2
S214009160064A074B07491D601450496830BC012960
S21400917004BFD2F800211A60704700BF008000408C
S214009180181B002000C001401C4B1B688BB170B53B
S2140091901B4C6268012A0BD01A4A8020C2F80031A4
S2140091A0FFF75EFA052805D041F204030122E250DB
S2140091B070BD70474FF4C070FFF7F2F901280446FF
S2140091C015D00F4B42F21005072641F2040101208C
S2140091D01A465E5158501369DB07FCD5012CE7D1BF
S2140091E02146BDE870404FF4C070FFF705BA022173
S2140091F04FF4C070FFF700FAE3E700BF181B00202B
S21400920000C001400080004038B5002863D0334BD2
S214009210334A1B7813B1334B98422ED91368D906BC
S214009220FCD44FF04024D4F88430C3F38113022BCF
S21400923050D0FDF7F9FC0546FFF71EFE4FF400631D
S2140092402367D4F88430DA060FD5D4F884309B062A
S2140092500BD4234603E0D3F88420920605D4D3F833
S2140092608420D3F88420D106F5D4FFF709FE2846DB
S214009270BDE838400021FFF7BBBD1368D906FCD413
S2140092804FF04024D4F88430C3F38113012B21D04F
S214009290FDF7CAFC0121FFF7ABFDFFF7EDFD4FF42C
S2140092A080632367D4F88430DA060FD5D4F8843088
S2140092B09B060BD4234603E0D3F88420940605D4FB
S2140092C0D3F88420D3F88420D506F5D4BDE83840FA
S2140092D0FFF7D6BD38BDFDF7A7FC98E71C1B00209E
S2140092E084400040005A6202F8B5274A1368D9063F
S2140092F0FCD44FF04024D4F88430C3F38113984252
S21400930028D005464FF48066FDF78EFC6B1E012DB7
S214009310074606FA03F624D0FFF7AEFD2667D4F814
S21400932084300146DE0610D5D4F884309C060CD472
S2140093304FF0402303E0D3F88420920605D4D3F8F8
S2140093408420D3F88420D006F5D40846FFF798FD8D
S214009350022D00D0F8BD3846BDE8F8400021FFF7E2
S21400936047BD2946FFF744FDFFF786FD2667D4F87C
S21400937084300146DB0603D5D4F884309B06D7D567
S214009380BDE8F840FFF77CBD8440004038B5037860
S214009390334C2370FDF748FC2378324A13B1324B26
S2140093A098422ED91368D906FCD44FF04024D4F83E
S2140093B08430C3F38113022B50D0FDF735FC0546ED
S2140093C0FFF75AFD4FF400632367D4F88430DA06BB
S2140093D00FD5D4F884309B060BD4234603E0D3F88D
S2140093E08420920605D4D3F88420D3F88420D106AE
S2140093F0F5D4FFF745FD2846BDE838400021FFF7C5
S214009400F7BC1368D906FCD44FF04024D4F8843057
S214009410C3F38113012B21D0FDF706FC0121FFF7D2
S214009420E7FCFFF729FD4FF480632367D4F8843008
S214009430DA060FD5D4F884309B060BD4234603E017
S214009440D3F88420940605D4D3F88420D3F8842057
S214009450D506F5D4BDE83840FFF712BD38BD00BFCD
S2140094601C1B002084400040005A62024FF040223D
S214009470536F417823F4407343EA012353677047E0
S2140094802DE9F04141F264034FF00047012641F216
S21400949004014FF040244AF6CD352D4AD750437884
S2140094A002F50C22B34056503343516C1564E36307
S2140094B092688478C37822F0740242EA04120BB1F0
S2140094C042F0040241F2640C4FF0004E41F20407F1
S2140094D001254AF6CD360379847990F8058044EA6A
S2140094E003241C4B9A60C2791C6142EA0822047865
S2140094F05A61174A42F80CE0DD51586C1E64BCB93C
S21400950042F208041A461D51D36ADC07FCD542F223
S21400951004030124D450012802D10E4B0E4A1A64CB
S214009520012902D10B4B0C4A1A640120BDE8F081D8
S214009530DA6A1207FCD442F22402202641F208041A
S21400954001259E50034A1D51536A9B06FCD5E2E74F
S21400955000800040004009403254FFFF10B441F242
S2140095600403012401F00F02C450C36CC3F30A03C2
S214009570002BFAD10263C36C13F0780FFBD101F015
S21400958001024B0748BF42F00202036C03F00303DC
S2140095909342FAD15DF8044B704700BF09B1FFF75C
S2140095A0DDBF42F20402012181507047036C5B0666
S2140095B0FCD5C163704700BFF0B5072A9DF814704C
S2140095C09DF818604FF003042FD821409500AC405A
S2140095D000FA05FCDFF88CE001FA05F51848194991
S2140095E0CEF80040C1F800C004608D6016481749E8
S2140095F0174C002B0CBF03460B460121A0F6FC704F
S214009600002F18BF0446134D00F58050103001FAA5
S21400961002F2002E0CBF0146294642F220400E4DB3
S2140096201A6022602A500A60F0BDA2F10801890083
S21400963088400A4D04FA01F1094C29602060D5E7FC
S21400964008E4034000D4034010E4034010D4034071
S21400965014E4034024D4034000C0034004E4034061
S21400966004D4034000E40340F0B4A2BB4400251831
S2140096702D0107294FF00F0C05F180451BD805F585
S21400968070356E688F000CFA07FC26EA0C0602FAA4
S21400969007F73E436E6062B9012202FA01F15BBB36
S2140096A042F210030444240104F1804404F57034AB
S2140096B0E150F0BC704701F1804605F57035083E74
S2140096C0EF68B6000CFA06FC27EA0C0702FA06F664
S2140096D03E43EE60DFE701268E4053B942F21007A4
S2140096E0440025182D0105F1804505F57035EE512D
S2140096F0BDE741F21007F3E741F21003D2E700BFDF
S21400970010B4064B064C0122002914BF1946214608
S21400971002FA00F008605DF8044B704740200440F1
S21400972040100440F8B5012104462020FEF73CFD19
S21400973001212120FEF738FD012200204FF4001100
S2140097404FF0FF0C4FF0004742F250054FF0FF3647
S2140097500D4B5A60227812069A6094F801E0A278BF
S21400976042EA0E429A61094AC3F828C09863186410
S2140097705F655E51C2F88011E3781B01DBB282F8A8
S21400978015331160F8BD00BF0000044000E100E0A2
S214009790F8B50C464FF0010E42F25007CB7A897AA4
S2140097A0267B1B05256843EA01431E4943EA4653C8
S2140097B01D4E94F80DC041F8205000EB4001C0B299
S2140097C006EB011122F003020EFA00F5C1F860C0A4
S2140097D0CB650A67F551FFF757FB736D227A2B436B
S2140097E0736512B1336C2B433364637A1BB10E4A34
S2140097F0936B2B43936342F2180141F218062379C8
S214009800A27942EA0342084B5A506779E27907493F
S21400981042EA07429A510D609D64BDE8F840FFF7A2
S21400982037BB00BF00400440000004403420044022
S21400983010B50124C0B28440FFF726FB044B5A6DD6
S21400984022EA04025A659C62BDE81040FFF720BB7E
S21400985000000440F8B501250446C3B29D40FFF75A
S21400986013FB0A4B04EB44041F6D5E6B03EB0413FF
S2140098705C6EFFF70DFB354206D1C4F30A1008B93B
S2140098803D4200D10130F8BD0020F8BD0000044084
S21400989070B441F6713041F268044FF4003642F27B
S2140098A00C020121034D044B2E51D86370BC995015
S2140098B0704700BF0080004000000340F0B442F252
S2140098C0680241F6713742F20C05012600244FF477
S2140098D00030044B0449DF635E51DC638850F0BC03
S2140098E0704700BF000003400080004041F2700354
S2140098F04FF4003203F140231A6070474FF04023C4
S214009900D3F89400704700BFCB784A7830B45B0138
S2140099100C7843EA82030D7900EB40022343920061
S21400992043EA051302F19042012C136303D18A78AF
S214009930024B43F8202030BC704700BFE88003404D
S2140099404FF090435A689AB9002834D05B688BB9B8
S2140099500121194A4FF09043116001E09A6A12B152
S2140099605A68002AFAD14FF090430122DA60704715
S2140099705B683BB14FF0904301E09A6A12B15A68B7
S214009980002AFAD10028E3D14FF0904301E09A6A0A
S21400999012B15A68002AFAD14FF0904202211346BB
S2140099A0D16001E09A6A12B15A68002AFAD10122FF
S2140099B0024B1A60704770470410004804200048A5
S2140099C04FF090435A68F0B42ABB01218378C278DE
S2140099D0002B037814BF02250025002A14BF042696
S2140099E00026002B4FF0904214BF0C460224437909
S2140099F00779DB00407843EA071303432B43084804
S214009A00084D3343296093600160D460F0BC704712
S214009A109A6A002AD9D05A68002AF9D1D5E700BF39
S214009A20041000480420004810B441F264024FF4C9
S214009A3080340749074B8C505B695DF8044BC3F3D1
S214009A40851103F03F021B0B817042700370704754
S214009A500080004000C0074070B5054616461C460C
S214009A60E9B1202C22D023D9402C16D0602C13D15B
S214009A70042206FB02F35A0802EB4112B2FBF3F291
S214009A80AB680D4923F06003AB60AB68203A01EA8F
S214009A90C2021C43AC60EA6170BD0622E9E74FF4DF
S214009AA02070FEF7ADFB202C0146DCD10822E0E753
S214009AB0002CF1D11022DCE7F8FF7F000122CB4317
S214009AC010B441F20404934003F00A0302514361C8
S214009AD0416111B942F20403C2505DF8044B70476D
S214009AE0F8B540F6AA62044641F204074FF0010CAE
S214009AF0002341F2050642F2480044F807C06261BE
S214009B00494A0D4649499442A360E365E6602361ED
S214009B10E361E3642150A3655DD002F58042944280
S214009B2059D0012342F2040041F20401AA7C2350DA
S214009B3063501AB1A36843F08043A360EB7C73B113
S214009B40394B2A7D9C4267D0394B9C4204BFA3F513
S214009B502033C3F89C21E36D43F08003E365298A34
S214009B606B7BEA890B431343E360D5E901122B7B39
S214009B702046FFF771FF6B7D1BB1A36843F480336B
S214009B80A360AB7DEA7D297E1B07120502F4E00286
S214009B9003F0E04313438A1E012AA365224B1ED915
S214009BA09C4237D003F580439C4214BF4FF0FF33EE
S214009BB0012342F21C6202205B0103F1804303F59D
S214009BC07033012998501ED141F25C030422E25002
S214009BD02B786361F8BD236500236365A1E79C428B
S214009BE01FD003F580439C4214BF4FF0FF33012380
S214009BF041F21C6202205B0103F1804303F57033DF
S214009C0003299850E0D042F25C030422E2502B78FD
S214009C106361F8BD0023CCE7A3F51033C3F88C21AD
S214009C2099E70023E4E700BF00C00540FFFF0100FE
S214009C3000000640F8B540F6AA62044641F2040762
S214009C404FF0010C002341F2050642F2480044F8AA
S214009C5007C06261364A0D4636499442A360E36502
S214009C60E6602361E361E3642150A36552D002F508
S214009C70804294424ED0012241F2040342F2040094
S214009C80A97B225000290CBF00214FF48061E250CE
S214009C902A8AA36842F0010213430B432A7DA3607D
S214009CA0A3680AB143F00053AA7CA36072B1204BAC
S214009CB0EA7C9C4237D0204B9C4204BFA3F520335D
S214009CC0C3F89C21E36D43F08003E3652B7B686853
S214009CD043F48053E360AE6800B301387600B0FB0F
S214009CE0F6F06B7B0002E0610BB1102363616B7DC5
S214009CF01BB1A36843F48033A360AB7DEA7D1B07EA
S214009D001205297803F0E04302F4E0021343A3654A
S214009D106161F8BD236500236365ACE74FF42070EE
S214009D20FEF76EFAD9E7A3F51033C3F88C21C9E71E
S214009D3000C00540FFFF01000000064070B440F67A
S214009D40AA6241F204040126002341F2050542F20C
S214009D504801065142610D4A0D4C90428360C3652E
S214009D60C5600361C361C3644450836509D002F5CE
S214009D708042904205D070BC42F204030122C250D9
S214009D807047036500234365F5E700BF00C0054044
S214009D90FFFF010083695A06FCD5C16383699B06F1
S214009DA0FCD5406AC0B2704783695B06FCD5C163C8
S214009DB0704700BF30B50A4B85B01C686CB150B117
S214009DC003460D46204601A901938DF808500392DC
S214009DD000F00EF8012005B030BD204605B030BDBD
S214009DE02C1B0020014B9868704700BF201B0020EA
S214009DF070B50E460546FFF73FF804463046A847BE
S214009E002046BDE87040FFF73BB800BF70B5FFF7CF
S214009E103BF8114D06462C78CCB91049104A114B28
S214009E200C6014601C8000F0B5FA012000F02CFBDA
S214009E3000F078FB0C490246086023460B4840F2C7
S214009E40E73128F045FA0122094B2A70186030469F
S214009E50FFF71EF8002070BD301B0020441B0020BA
S214009E60341B00203C1B0020401B002018FCFFFF7A
S214009E70381B0020002842D0F8B50446FFF704F847
S214009E80064600F0CBFA054627480168002938D078
S214009E90264F4A693B68EB1A934213D90023AD1A42
S214009EA03D604B618C4218BF0A4603D136E09C42A7
S214009EB00CD01A469368002BF9D13046FEF7E8FF1F
S214009EC00220F8BDD31A4B613D60EBE7A3689360B0
S214009ED0A3687BB10A4658696769384458618C4262
S214009EE016D1BAB1536902201D4400F0CDFA2846B7
S214009EF000F09CFA3046FEF7CBFF0020F8BD22208B
S214009F0070470A4B30461D60FEF7C2FF0220D8E7B6
S214009F10002AEFD1022000F0C3FAEBE7A268026045
S214009F20002ADCD01346D6E7441B0020341B002052
S214009F302DE9F0479DF820A0BDF8249000284BD0CE
S214009F4005461646984600270C46FFF793FF85F809
S214009F5004A0C5F80080EE60A5F80690AF602F61FB
S214009F603CB96C61AEB328464146B0472046BDE8D2
S214009F70F087FEF789FFDFF8B080064600F04EFA5D
S214009F80D8F800C0DFF8A4E0BCF1000F27D0DEF858
S214009F900030DCF81420C31A934230D8D31ACCF819
S214009FA01430CEF800006C616346002000E00B46DB
S214009FB05A69A24200D942BB9968A41A6C61184635
S214009FC00029F4D19D60A960654529D03046FEF78A
S214009FD05FFF0020BDE8F0872220BDE8F08703463B
S214009FE06C61C8F80050C5F808C0CEF800001C44E4
S214009FF0022000F049FA204600F018FAE6E7801A38
S21400A000CEF80000CCF81470CDE720B18560AB60C8
S21400A010141B5C61D8E7C8F80050AB60AC46F7E7A5
S21400A0206C69DEF80030E2E7441B0020341B002099
S21400A03038B5FEF729FF054600F0F0F90446284635
S21400A040FEF726FF204638BD70B5FEF71DFF064614
S21400A05000F0E4F9094B05461C880120A4B200F084
S21400A06037FA18B100F0DAF9054601343046FEF743
S21400A0700FFF0022214642EA050070BD3C1B00206F
S21400A080014B1868704700BF401B0020044B054A70
S21400A0901B6803FB00F0A2FB00308009013070470C
S21400A0A0401B0020D34D62100A4B1B6883420ED320
S21400A0B010B50C4608494FF47A7209680023A0FBD5
S21400A0C0010128F005F901302060002010BD212094
S21400A0D0704700BF381B0020401B0020014B18684B
S21400A0E0704700BF381B00204FF47A72104B2DE9E2
S21400A0F00048A0FB02BC1A6812B1531E134206D0D9
S21400A10058466146002328F0E3F8BDE80088B2FA16
S21400A11082F2C2F11F02C2F120032BFA02F00CFAFF
S21400A12003F3203A18432CFA02F21043BDE80088E5
S21400A130401B0020000000002DE9F84923A5D5E9C2
S21400A14000458D4208BF844239D34B014401241A8E
S21400A15043EAD06565EB0105A600AB00801943EA2B
S21400A16094735941CE00C30046EA50761846164B03
S21400A1701B685BB9144631461A46002328F0A8F837
S21400A1800025C4E900012846BDE8F8895D1E1D408B
S21400A190F0D1B3FA83F3C3F11F03C3F12007D8400D
S21400A1A006FA07F7A3F12001384326FA01F108431F
S21400A1B026FA03F3C2E900032846BDE8F8892125FC
S21400A1C02846BDE8F88900BF401B0020EFA7C64B15
S21400A1D037894100C2072DE9F84F044600F19980FF
S21400A1E0A30701D4BDE8F88F00F018F9DFF8A081C6
S21400A1F00646D8F80050644F451BFEF745FE3C68FF
S21400A2008246002C00F0AB8062699542C0F0B880B0
S21400A2104FF00009C8F800602346294600E05A6956
S21400A2208A4209D8187994F804C0891A844588BFE8
S21400A2301C469B68002BF2D15046FEF729FED4F848
S21400A24014A0C4F81490FEF71FFE3A6842B1A2426A
S21400A25003D17AE0A3422DD01A469368002BF9D199
S21400A260FEF716FE2369002B32D1E36813B121688E
S21400A2702046984700F0D2F85644AD1B8346054466
S21400A280FEF702FE3C688246002C68D062695E4695
S21400A290AA42BFD9551B656102205D44C8F800B0CC
S21400A2A000F0F2F8284600F0C1F85046BDE8F84F36
S21400A2B0FEF7EEBDA3689360A1680029D0D04B6975
S21400A2C0626913444B61FEF7E3FD2369002BCCD093
S21400A2D0FEF7DAFD22693B6886466261002B37D0BE
S21400A2E04FF0000C00E003465969914201D900295D
S21400A2F03DD19868521A62619C460028F3D19C6052
S21400A300A06010B143699A1A42617046FEF7C0FD1C
S21400A310ABE71E4A138801339BB2138000F07EF829
S21400A320194B1A684AB31A4955690B68C31AAB42E7
S21400A33011D90023401B08605361C518022000F0A5
S21400A340A3F8284600F072F84AE7A1683960B4E737
S21400A3503C60A360D9E7EB1A53610860EDE7022082
S21400A36000F09EF85046BDE8F84FFEF791BD18463F
S21400A370BCF1000F06D13C60C2E7054B18602FE722
S21400A380B34687E76346BAE7441B00203C1B002021
S21400A390341B002010B500241D4B84B003F10802C6
S21400A3A093E803000290ADF80C1092E803000090CA
S21400A3B08DF804103E200121FDF7F6FE02A88DF868
S21400A3C008408DF80C40FFF7FBFA04A901F8104D81
S21400A3D00120FFF799FA4FF0904140F2FF340A4609
S21400A3E08B690C4823F47F7323F003038B610460AE
S21400A3F0936A13F00803FBD113620120FFF7A0FA5B
S21400A4004FF48052044BC3F880211A6004B010BD8C
S21400A410042C03001420004800E100E04FF09042B6
S21400A420936A1B07FCD4106A704700BF4FF0904237
S21400A430936A1907FCD4136A116C5269520602D447
S21400A440CA1A022A1AD9C21A012A98BF981CB0F151
S21400A450FF3F28BF01304FF0904318649A6942F0DE
S21400A46040029A61074B1A783AB14FF090410020AB
S21400A470CA6B42F00202CA63187070479942F1D163
S21400A480E1E700BFA810002082074FF0904200F0DE
S21400A4900103916948BF43F040030B439361704743
S21400A4A0830700F001020AD54FF090410120074BC8
S21400A4B042F040021870CB6B23F00303CB634FF0DF
S21400A4C090418B6923EA02038B617047A810002035
S21400A4D04FF0904301285B6906D0022802D1C3F3EF
S21400A4E0801070470020704703F00100704700BFDF
S21400A4F010B5FEF7C9FC4FF0904304465B695A0658
S21400A500074A03F0010003F0510348BF40F0020081
S21400A5101360FFF75FFE2046BDE81040FEF7B8BCAC
S21400A520142000483E20FDF76BBE00BF064B70B5FA
S21400A53006460D46144618464C22002128F0D5F84B
S21400A540C0E90965C46270BD644E002008B5FFF717
S21400A55049FC80F48050C0F3003008BD104B10B5A5
S21400A5601A790446D2070ED55B798B420BD30121AC
S21400A57000F000FA33216CB90022BDE8104009480B
S21400A5801146FFF717BC0021204600F0F3F9002C17
S21400A590F2D03121BDE81040034A0248FFF70ABC5A
S21400A5A0644E0020984E002055A9000070B51D4648
S21400A5B00023144602F04002134382B004D0144B2A
S21400A5C093F83820D2071DD54BF20900002100EA87
S21400A5D0040201EA0503134303D12046294602B0CC
S21400A5E070BD0B4E01A9706A1EF00EFB9DF804307C
S21400A5F0042BF2D0B1780020FFF7B0FF20462946A2
S21400A60002B070BD99780120FFF7A8FFDCE700BF15
S21400A610644E002070B50646FFF7E4FB10F4805445
S21400A6200CBF01200020084D00F0BCF9211C18BF0B
S21400A6300121686A1EF016FC26B11CB1AB6ABDE8A3
S21400A6407040184770BD00BF644E002018B1034B21
S21400A650D87800F00100FFF7DDBF00BF644E002091
S21400A660084B9B798B4202D20020FFF777BF10B5CC
S21400A6700446FFF773FF24B1BDE810400020FFF743
S21400A680C9BF10BD644E00202DE9F04383B01E46BE
S21400A69007460D469046FFF7A5FB430502D403B0D8
S21400A6A0BDE8F083FEF7F0FB204C8146E37813F01C
S21400A6B0240F28D1002294F803C0218868F3041CD4
S21400A6C00092791A1A4B1B4884F803C01DF0D8FF75
S21400A6D078B9E378FF2143F0040365F34103A670DD
S21400A6E0E370FFF73BFF484603B0BDE8F043FEF7D4
S21400A6F0CFBB28463146FFF7B3FF484603B0BDE858
S21400A700F043FEF7C5BB03F0FB036FF3451304F1FC
S21400A7100C00E3701DF0C0FFE1780022890901F00B
S21400A720020104F14000FFF745FBC3E7644E00203A
S21400A7300DA80000704E002070B52F4C82B0E37854
S21400A7400A461D0745D5DB0643D5002841D0E379E8
S21400A750002B3ED0257A632D3BD8002D3FD04FF4FA
S21400A7607A7505FB03F51EF0EEFBB0FBF5F26423ED
S21400A77002FB1500227A03FB00F305FB02F293426C
S21400A78033D21E4DE378A5FB021243F04003C0EB24
S21400A7905215E37000210846FFF7E0FE0022E67837
S21400A7A0174846F0200616F0400F0CBF11468021D1
S21400A7B0B30903F002031943E670FFF7FBFA002320
S21400A7C02946009301220F4B0F481DF059FF02B097
S21400A7D070BD114602B0BDE87040FFF741BF284685
S21400A7E002B0BDE87040FFF7B9BEE3782D1A6FF3EC
S21400A7F08613E370CEE700BF644E00201F85EB5142
S21400A800A44E00202DA80000704E0020064AD378E3
S21400A810590700D470476FF38203C3F34000917862
S21400A820D370FFF789BF00BF644E0020044BD87872
S21400A830820600D470479978C0F34000FFF77CBFCB
S21400A840644E00202DE9F041144607460E46FFF7F9
S21400A850C9FA420519D567B3CEB93C4D95F83830DC
S21400A860DB0738D56B79A3420FD3FEF70DFBEB78E9
S21400A870804613F0240235D162F3041321460120EA
S21400A880EB70AC70FFF758FF35E0BDE8F081FEF7DF
S21400A890FBFA2E4B8046DA78214642F01002012061
S21400A8A09C70DA70FFF748FF4046BDE8F041FEF7BF
S21400A8B0EFBAFEF7E9FA254D8046EB7813F0240050
S21400A8C026D07EB343F0100338462146EB70AC70BA
S21400A8D0FFF732FFE8E7FEF7D7FAEB78804613F08B
S21400A8E02402C9D0EB7821466FF304130120AC7024
S21400A8F0EB70FFF721FFE9780022890901F00201D9
S21400A9001348FFF757FA4046BDE8F041FEF7C0BAD5
S21400A91066F304132146EB70AC70FFF70DFF002EB4
S21400A920C2D1E8E766F3820366F3451305F10C002F
S21400A930EB701DF0B1FEEB78214666F3041330464B
S21400A940AC70EB70FFF7F8FED5E700BF644E002052
S21400A950A44E0020C20610B5044606D4A30600D4B2
S21400A96010BD002000F01EF810BD012000F01AF8FF
S21400A970F4E700BF38B50546094C08B9A57638BDDA
S21400A9802176FFF7E3FDA37E6076002BF6D1227ECC
S21400A990A57654F82230013344F8223038BD00BF83
S21400A9A0481B002010B50D4CA37E13B110B1012337
S21400A9B0637610BD03464FF0FF30A3761DF030FEE1
S21400A9C00528F6D1237E002B14BF0522042254F856
S21400A9D02230013344F8223010BD00BF481B00204F
S21400A9E0C20606D51038C0B203281BD80E4B185C1A
S21400A9F07047C1070BD402070BD410F0020F0CBF30
S21400AA0003230223810606D543F0A00070470123E6
S21400AA10F8E70423F6E7420654BF43F0800043F00D
S21400AA20C000704704207047112C030040F2011349
S21400AA302DE9F047984288B040F0988040F2031025
S21400AA4000F0BEFC064690B3022013F0D7F80028AC
S21400AA500CBF0B221222311D171D3944C2F1FF0212
S21400AA6003A813F02EFC9DF80E300546FF2B404C35
S21400AA7021D130460AF064F89DF81930214623713A
S21400AA80DDF80F300D20C4F80530BDF81330A4F8FB
S21400AA9009309DF81530E3729DF816302373354B58
S21400AAA023600123009300231A4600F08DFC01204A
S21400AAB008B0BDE8F087022013F0A0F8EDB29DF8CC
S21400AAC015A09DF816909DF80E309DF80C80A0B34A
S21400AAD01846FFF785FFDDF80F3005F11202C4F8BF
S21400AAE00530BDF813306575A4F809309DF81730A9
S21400AAF0214D63739DF818302071A3739DF81930AB
S21400AB0084F80BA0E3739DF81A3084F80C90237435
S21400AB109DF80D3084F81180A374BDF81B3045EA0B
S21400AB201225A4F8133013029BB21D433246104977
S21400AB303846256000F08CFCB9E7184684F8048097
S21400AB40FFF74EFFDDF80F30A573C4F80630BDF8EA
S21400AB5013300B35094A63812B02607184F80CA010
S21400AB6084F80D909BB242EA1525DEE700209FE7A9
S21400AB70B04E0020A0090302A0000304A0000300BA
S21400AB8030B51C4640F206239A4287B000F0938008
S21400AB9041D8102A00F01C8127D8042A76D0072A2C
S21400ABA000F0D380032A6ED1002403A8CDE9034425
S21400ABB0059413F0B9FF48F27D728C49049B4A82D3
S21400ABC049F66152CB6001238A82894D894A0B82FD
S21400ABD0C1E9005202F19D7204328A601620009389
S21400ABE02246234600F0F0FB4DE0B2F5817F00F0F0
S21400ABF0A18040F203139A427FD0112A43D12388C2
S21400AC007A497D4A8B800A60002301228B7100926C
S21400AC101A460720E6E740F202639A4200F0A28056
S21400AC2020D840F20B239A423AD040F201639A426F
S21400AC3000F0BF8040F207239A4224D120780AF021
S21400AC4049F800B3694D237860782B7113F050F8FB
S21400AC506A4B68712B6001230093002329461A462D
S21400AC600620BFE740F204639A4200F08C80C0F0F2
S21400AC70858040F205639A4200F0938040F20763B5
S21400AC809A4200F09E80002007B030BD23885749C6
S21400AC908B805B4B0B600123009300231A46DFE793
S21400ACA0638852498B8023788B71564B0B60012347
S21400ACB000930023ACE723684C4953F83C0F9B886D
S21400ACC048600B81236893F855208A7293F85720C2
S21400ACD0501E42424241CA7293F852200F200A7315
S21400ACE093F8592093F85A304A738B73464B0B608F
S21400ACF00123009300231A4674E7207809F0EAFF40
S21400AD000028C0D0237839490E200B716388A1F83B
S21400AD100530A388A1F80730E388A1F80930237A24
S21400AD20CB7263898B81394B0B6001230093002320
S21400AD301A4657E723782D490B71354B0B600123D4
S21400AD400093002305201A464CE7207809F0C2FF3E
S21400AD50264990F852300B7163784B71A3788B714B
S21400AD602C4BA3E7207809F0B5FF00288BD023787A
S21400AD701E490B7163784B71274B8BE723781B4971
S21400AD800B71264BDAE7237818490B716368C1F814
S21400AD900530234B0B600123009300231A4609203D
S21400ADA020E7237811490B716368C1F805301D4B05
S21400ADB0F0E723780D490B716388A1F805301A4B2C
S21400ADC074E7237809490B7163684B71174B61E789
S21400ADD023780649164A0B710A60002301224B713C
S21400ADE08B71CB710B720092D8E700BFB04E00207B
S21400ADF0A012010002000D00A0030106A002080434
S21400AE00A0020105A0030801A00B0800A00A080282
S21400AE10A0010301A0030803A0020F03A0010F0175
S21400AE20A0050F00A0050F02A0030F04A0020F0943
S21400AE30A0050305014813F0F9B900BF2DAA0000CC
S21400AE4010B504464FF49870A047044B18604FF4B2
S21400AE509870A047024B186010BD00BF641B00200E
S21400AE60681B002038B50B4D0B492B6809681A186B
S21400AE70914204460CD902460021184627F035FCBC
S21400AE8003460330204420F003002860184638BDEF
S21400AE900023FBE7741B0020781B002007B51B6807
S21400AEA0074908204B60074B0B60012300930023E3
S21400AEB01A4600F089FA002003B05DF804FB00BFD4
S21400AEC0B04E0020A004010307B502210DF10602D2
S21400AED0322000F065FC18B9BDF8060013F086FEB7
S21400AEE003B05DF804FB000030B585B00446FFF7FC
S21400AEF0F5F8A04202D2FFF7F1F8044603A920466F
S21400AF00FFF7D2F888B9CDE900000346084A03994E
S21400AF100848FFF70DF840B924B113F00BFFFFF710
S21400AF20E3F80446204605B030BD0024FAE700BF2B
S21400AF3035B30000801B002038B5054600F07EFCC7
S21400AF40074C2060206812F027FE286000F000FA08
S21400AF5020B908F015FF0028F4D138BD0120FCE721
S21400AF606C1B0020F0B5124D124E85B003A8FFF7FB
S21400AF70E3FF044638B100F003FA044600F0F0F9A7
S21400AF80204605B0F0BDFDF77FFF039907464B1C32
S21400AF9006D0CDE9004423462A463046FEF7C8FFD1
S21400AFA0039B0BB113F0C6FE3846FDF771FFDDE7D5
S21400AFB035B30000801B002007B501A8FFF7BCFFD3
S21400AFC003B05DF804FB08B5FFF7F6FF18B1BDE85F
S21400AFD00840FFF7C7BF08BD08B508F017FF08B15F
S21400AFE0012008BD00F02AFC08F064FF0028F7D115
S21400AFF000F0AEF9003018BF0120F2E708B5FFF701
S21400B000EBFF28B900F01AFCBDE8084008F060BF66
S21400B010002008BD10B5FFF7F1FFFFF765F80446FE
S21400B020FFF75CF8A04203D2BDE81040FFF756B821
S21400B030204610BD08B5064B1978814204D018701A
S21400B04012F0CEFD002008BD40F28110FBE700BFE5
S21400B050701B0020024B1B6803B11847704700BFE7
S21400B060981B002008B5054B01461B7858B208F01F
S21400B07067FEBDE80840FFF7EDBF00BFE04E0020CA
S21400B0802DE9F047044686B0002800F0338113F01F
S21400B090E7FD002800F031812368DA0542BF01226F
S21400B0A0974B1A7013F0EAFD257A0020002D08BF92
S21400B0B0042500F0C1FB677AE368002F08BF01276C
S21400B0C03BB1904AA16C1360228A0A4413448E4A0C
S21400B0D013608E48FFF7B4FE5FFA87F88B49152099
S21400B0E009F0C6F8E27A4146E8B212F040FD884B15
S21400B0F01968884B18681CF063FC00F023FB0646B2
S21400B100002840F0B2800AF055F809F0A3FE394650
S21400B1100246284600F03EFC94F83E50002D7DD0B6
S21400B120102D28BF102509F05DF8002381B26A1C97
S21400B1300C2009F065F840461AF05BFE40460BF01E
S21400B140A5FEA07A18F008FBA07A19F016F8724A45
S21400B1507249142008F01EFF6FF00303A26C512101
S21400B1609B1A694A012012681A44664B1B68D21A59
S21400B1705823B2FBF3F2002392B209F041F808F02C
S21400B180ADFD5F4B1A78984632B9206880F400709F
S21400B190C0F3402000F010FA09F0C0FC94F830101C
S21400B1A021B1626B362000F0EDFA064604F12C025F
S21400B1B00421352000F0E6FA94F83830002818BF4D
S21400B1C006466BB304F1390201213E2000F0DAFA9C
S21400B1D0002818BF0646FFF777FE94F804A0E0693B
S21400B1E00AF0040A08B112F0D4FD0DF108094A4627
S21400B1F006212C2000F0D4FA0546D8B9484612F0AD
S21400B200ADFD88B130280FD00DF1070201213C209A
S21400B21000F0C6FA074680B1012717E0042582E74A
S21400B2203E2000F0CBFAD6E73C2000F0C7FA2C20F0
S21400B23000F0C4FA00252F4608E09DF80750012DBF
S21400B24017D199E803000490ADF81410206A00F0B6
S21400B250E7F994F84430DB070DD594F8450013F071
S21400B260F0FC40B100F5306086B2304606B0BDE86E
S21400B270F0870546D0E7002F04F1280314BF4A469E
S21400B28000220121204600F025F913F04BFD244B47
S21400B290626A1A6098F8003013B9012000F0CCFA00
S21400B2A000F0CCFA1F4B01211860062012F0B2FC09
S21400B2B001200AF0B7F81DB104A901200AF08EFBA0
S21400B2C00021194808F02AFD184B1870BAF1000F33
S21400B2D00ED10220FCF7F6F800220321144808F0ED
S21400B2E0E5FE98F80030002BBFD1FFF7B3FEBCE7B1
S21400B2F00320EFE74FF4C076B7E740F28D16B4E7C9
S21400B3007C1B0020741B0020781B002065AE00000C
S21400B310881000208410002083B800003DB800008C
S21400B320981B00206C1B00209DAE0000E04E002005
S21400B33014220020FFF78EBE044B1B680BB918467C
S21400B34070471A788242FAD09B68F7E7A41B002061
S21400B350024B1868003018BF012070479C1B002065
S21400B36010B5054C206808B109F0EAFB034B1A68D3
S21400B370226012681A6010BDA01B00209C1B0020D3
S21400B380024B186800B10430704700BF9C1B0020B9
S21400B39070B506460D46FFF7CFFF48B90C2009F0FA
S21400B3A0CDFB38B1054B06701A68456082601860A0
S21400B3B0002070BD4FF4C170FBE700BFA41B002047
S21400B3C0043009F0ACBB00002DE9F0471E4691F9A9
S21400B3D000308046002B8A4615469DF8207023DAFA
S21400B3E0101880B2FFF7ECFFB0B1174BD3F80090FF
S21400B3F0B9F1000F14D1041D18604246514620468C
S21400B40027F04FF945B104EB0800022F16D10023B0
S21400B4102A46314609F0A6F8BDE8F047FFF71ABEFF
S21400B4204B46D9F80090E3E7084B02461B681846DF
S21400B43027F037F9002DEFD04044E6E72A4631469C
S21400B44027F02FF9E8E700BF9C1B0020681B0020B0
S21400B450074B10B414461A6832B91C600246201D09
S21400B4605DF8044B27F01DB913461268F4E700BFD9
S21400B4709C1B002037B5C0F30744019020461546B4
S21400B480FFF75AFF30B1C9B99DF8072043680BB1E2
S21400B490196871B99DF80720240444EA026440F252
S21400B4A08312084B44F408741B681C609A8003B02F
S21400B4B030BD5879904201D00833E8E728468847DF
S21400B4C0F5E700BF681B00200A460021FFF7D2BF41
S21400B4D0704770472DE9F043064687B00D461F4675
S21400B4E0334C002A3FD1334BD3F848C0DB6C42EADA
S21400B4F00C08C8F30742A270C3F30722C8F307215B
S21400B500E270C3F30742C3F3076384F800806170F8
S21400B51022716371122200210DF1060027F0E5F872
S21400B520738AADF8043073690293B3690393B6F86F
S21400B5304030ADF81030B6F84230ADF8123013F0A7
S21400B5407DFB8DF814009FB9029B43F01003029315
S21400B55001A800F06BFA0446A0B100F53064A0B272
S21400B56007B0BDE8F083136823609388A380D1E713
S21400B5703B78002BE8D07B78BA78012B8DF8142026
S21400B580E2D0E5E7502306AA22F8163D0221312034
S21400B59000F006F9BDF9020012F04CFB284600F058
S21400B5A051F812F017FEFFF745FC2046D8E700BF1B
S21400B5B0345000200080E00F08B518B10449054853
S21400B5C0FBF700FF13F03CFBBDE8084013F0C2BADF
S21400B5D0D3B40000D1B400004FF08052014B5A6043
S21400B5E0704700BF00ED00E00023044A52E8000F59
S21400B5F042E800310029F9D100F04EB94050002051
S21400B600054A52E8003F034342E800310029F8D1DA
S21400B610024B1B68184700BF405000203C500020DB
S21400B620054B08B118607047044A05496FF00100E1
S21400B6301A6013F01DBB00BF3C500020D9B50000B7
S21400B640E9B5000010B5002104460A4808F066FB7C
S21400B650094B187024B1BDE81040012108F070BBFA
S21400B66022460649064808F029FDBDE8104001209C
S21400B670FBF728BFA1B600004450002081AB0000B5
S21400B6801422002008B512F061FABDE80840002236
S21400B6900149024808F012BD81AB000014220020C8
S21400B6A073B51C68E10701D5FFF7ECFFA20725D5A7
S21400B6B00DF01EFEE0B902AC124D44F8040DFDF785
S21400B6C0E3FB0646284608F0A6FF01903046FDF745
S21400B6D0DFFB019890B143795B070CD4204602212A
S21400B6E009F05FF901980DF0FDFD0DF06DFEE6E73F
S21400B6F00DF06AFEDCE70EF0A3FCF6E7002002B0D1
S21400B70070BD00BFA81B002038B5044648B1FDF741
S21400B710BBFB05462146084809F09AF82846FDF77F
S21400B720B7FB064B022193F9000008F009FBBDE8C1
S21400B7303840FFF78FBC00BFA81B002044500020F5
S21400B740FFF7E2BF0D4B98420BD8013B98420ED252
S21400B75030B1033B98420DD0C0F30C0000F51060EA
S21400B7607047074B9842F7D140F2025070474FF4AB
S21400B770C070704740F20150704700BF0AE000F00A
S21400B7800BE000F008B50B4640F480210348006843
S21400B7901CF0ECF9BDE80840FFF7D4BF8410002089
S21400B7A008B50B4640F48021034800681CF028FAD0
S21400B7B0BDE80840FFF7C6BF8410002008B5054B5B
S21400B7C040F4802118681CF0B5FABDE80840FFF781
S21400B7D0B9BF00BF841000202DE9F04305460F4690
S21400B7E090468DB002AECDF800803B460A22314628
S21400B7F028461CF08FFA002481464C4505D1002CC3
S21400B800F1D120460DB0BDE8F08356F82410284646
S21400B8101CF090FA0134F0E7CA4308B5054B10FA5D
S21400B82082F240F4802142F480221868FFF7D4FFA9
S21400B830002008BD84100020FEF7E8BAFEF7F8BB2B
S21400B840F7B50546FEF700FC6A46FEF775FC0446AB
S21400B850A0B9DDE900674FF47A7200233046394616
S21400B86026F036FD4FF47A722860002330463946BB
S21400B87026F02EFD90B2FEF709FCA880204603B005
S21400B880F0BDFEF711BC0000024BD86808B1FFF708
S21400B890B7BE7047AC1B00202DE9F8433C4B002296
S21400B8A01D4603F10C0151E8001F03F10C0444E8A7
S21400B8B00026002EF5D140EA0104200101D505F04E
