S01E0000626F6F746C6F616465722D756172742D62676170695F322E73333701
S113000000800020F1020000EF020000E503000080
S1130010EF020000EF020000EF020000EF02000018
S1130020EF020000EF02000064300000EF02000065
S1130030EF020000A4300000EF020000EF02000015
S113004010B5054C237833B9044B13B1044800E0D0
S113005000BF0123237010BD180100200000000020
S1130060BC32000008B5034B1BB10349034800E050
S113007000BF08BD000000001C010020BC320000CD
S1130080044B054A9A60D3F8882042F47002C3F8FE
S11300908820704700ED00E0000000000179012293
S11300A00431033001F06EBE01F0B8BD00B5C3B039
S11300B002F05DFFB0F5027F17D14FF48472002186
S11300C0684602F0A9FFA0238DF8033002238DF8BF
S11300D0043001238DF8063003238DF807300B23F9
S11300E068468DF80830FFF7D9FF4FF48472002179
S11300F0684602F091FFA0238DF8033004238DF8A5
S1130100043028231B6868469B68CDF80730FFF746
S1130110C5FF43B05DF804FB70B5ADF5856D4FF4D4
S11301208472002181A802F077FF022320248DF835
S113013008326D4B04AD0FCB85E80F002C22002153
S11301400DEB04008DF8074202F066FFFF234FF425
S11301508E720021C3A88DF8213002F05DFF482281
S1130160002113A802F058FF6822002125A802F0FC
S113017053FF234625AA13A9C3A801F0D6FF0024E0
S11301804FF4847200213FA802F046FF4FF47A76C0
S113019001F02EFE0028FBD001230096194603AA85
S11301A00DF1FF0001F048FE9DF8FF30202BEFD148
S11301B00123009603AA032140A801F03DFE039BFE
S11301C0032BDDD19DF8006176B140F6B83303AA64
S11301D00093314601230DF2031001F02DFE039B21
S11301E09E42CDD10028CBD19DF80131002BC7D13F
S11301F09DF80231032BC3D8DFE803F066020D2516
S113020001238DF80A328DF80B428DF80C4281A837
S1130210FFF744FFB4E79DF80331009541AA08A90C
S1130220C3A801F0C3FF02238DF80A320028EAD0E4
S113023041F207039842E6D003238DF80B320B23D7
S11302408DF80C32E3E703238DF80A329DF822304F
S1130250F3B19DF82330DBB18DF80B428DF80C42DD
S113026081A8FFF71BFF9DF82230002B88D09DF852
S11302702330002B84D09DF820305A0714D51298CF
S113028002F08AFD58B101F0B4FC02F097FD77E763
S113029003238DF80B320B238DF80C32E0E740F288
S11302A0022002F035FE6BE79B077FF569AF282338
S11302B01B68099A9B689A427FF662AF01F099FC29
S11302C0119902F03FFD5BE79DF822302BB19DF8B8
S11302D0233013B940F20320E3E79DF80331012BE7
S11302E0DDD040F20120DCE7403000007047FEE73B
S11302F008B5FFF7C5FE00F0C7F80A4A0A4B0B49D8
S11303008B4206D300210A4B0A4A934206D300F0DB
S11303106DF852F8040F43F8040BF1E743F8041B9B
S1130320F3E700BFBC3200000001002018010020E8
S113033018010020C40300200020704770470120EA
S113034070470020704700207047000030B51F4BF5
S113035087B001AA03F110051446186859680833D8
S113036003C4AB422246F7D11B78194A2370136F9A
S113037003F00703032B24D041F264034FF48021DC
S1130380D15002F500429368C3F30443102B1AD8EA
S113039006A90B4413F8140C0E4B0F4943438B422C
S11303A006D191680122C1F301618A40B3FBF2F3E3
S11303B0074A106FC0F303300130B3FBF0F007B00D
S11303C030BD064BF4E7064BF2E700BF50300000A7
S11303D00080004040420F0000093D0000F0490247
S11303E0C0EA21014FF4017002F092BD234B10B515
S11303F01B68C3F30743012B10D1214B4FF4802218
S1130400596E41F2640049034FF0040458BF42F2AC
S113041064011A501B48046058BF5A504FF04023DF
S11304204FF400621A67D3F88420D206FBD4FFF796
S113043088FF02F050FDFFF737FEFFF737FE18B1D3
S11304404FF4017002F064FDFFF766FE0446FFF707
S11304504DFF1CB140F203739C4203D140F20120D2
S113046002F056FDA4F20574012C94BF40F203205F
S11304704FF4017002F04CFD002010BD0080E00F2D
S1130480008000402020014013B501244FF0402398
S11304908DF806408DF80740D3F894305B0635D4C8
S11304A000F00EFD20B100238DF806308DF80730E2
S11304B046F204031B68013308D14FF4027002F0C2
S11304C01CFD00238DF806308DF807309DF80730A9
S11304D063B14FF4C04002F0EDFB8DF806009DF8C7
S11304E006301BB94FF4027002F007FD9DF8063088
S11304F0C3B14FF4C0430C4A93601846016881F3BA
S1130500088881F3098840688746FEE702F014FDF5
S1130510A0F2022080B20728C2D8844014F0C90F88
S1130520BED0C0E702B010BD00ED00E0002070476F
S113053030B541F264030825094C0144E550012417
S11305400025084B5C609D601A611A46DC60884295
S113055001D1586A30BD10F8014B1462F7E700BFAF
S11305600080004000800840F8B51D460F4641F267
S113057068034FF400511646114A0446D150022331
S113058002F59352136001F00CFADDE906122046DD
S113059001F00BFA002384F83870636232682B0C84
S11305A0C4F839207268C4F83D20B26884F8453034
S11305B02B0AC4F8412084F8463084F84750F8BD2B
S11305C00080004030B51D4685B000F12803CDE918
S11305D00112009300F1240200F13803294601F0CE
S11305E03AFA05B030BD00002DE9F041B0B0369CB8
S11305F0064600286BD0002969D0002A67D0002B5A
S113060065D0002C63D006204FF40057069041F2C9
S11306106800304D01F120082F5003252E4820AFEB
S1130620056000200D46BE4609900C900F90F446DC
S1130630286869680835ACE803004545E646F6D104
S11306400DF1A00C02F1200E6546106851680832C5
S113065003C57245AC46F7D10DF1400C654603F174
S1130660200E2A4618685968083303C27345154694
S1130670F7D1234618AC03F12005224618685968BF
S1130680083303C2AB421446F7D140230893CDE9A3
S11306900A7320230AAA0E9303AB07CACDF81CC021
S11306A00D9683E8070007AB93E807008DE8070081
S11306B00DAB0ECB094800F0A7FF0690069B40F255
S11306C00460002B08BF002030B0BDE8F08140F288
S11306D00160F9E700800040609200403C32000075
S11306E04FF4005141F26802074B10B599500222B1
S11306F0044603F593531A6000F0B0F82046BDE8B1
S11307001040002100F0AEB80080004000F0AFB807
S1130710014600F0B9B800002DE9F7431446DDE9BD
S11307200A820E461F46002845D11CB9002003B09A
S1130730BDE8F08313683F2B3BD85168204D11B1BD
S1130740002F18BF3D4603F03F00E318136022BF9B
S113075053680133536080B3C0F140094C4522D340
S113076031464A46404402F04CFC01234246009381
S113077029463B460020A4EB090400F093F83F2CE3
S11307804E440DD93D46A309009332463B462946C3
S1130790002000F087F824F03F031E4404F03F04D7
S11307A0002CC3D0002022463146404402F029FCEC
S11307B0BCE73D46C7E70348B9E73F2CF3D9E2E776
S11307C0E430000080AFFFFFF0B51D460C4617462D
S11307D01A6887B0D3008DF80F3053098DF80E30A6
S11307E0530B8DF80D30530D8DF80C306B68CDE93B
S11307F00075D90001EB52718DF80B1002F03F0225
S11308005909372A8DF80A104FEA53314FEA5353E6
S113081094BFC2F13802C2F178028DF809108DF844
S113082008300D4923460646FFF776FF0822234683
S11308300DEB0201CDE900753046FFF76DFF23464D
S11308400C9A04F1200153F8040B8B4242F8040B78
S1130850F9D1002007B0F0BD043100006822002166
S113086002F0DABB0023C0E900331846704707B52D
S113087000F128030190009300F108030020FFF722
S11308804BFF03B05DF804FB07B50346009100F18C
S1130890280200F108010020FFF796FF03B05DF87D
S11308A004FB0000F0B51C4693B0002837D1189B18
S11308B006909B01CDE904230AAA0B46154601F1D3
S11308C02007164618685968083303C6BB423246E7
S11308D0F7D100230795099301F04AF90646D8B9E0
S11308E02023089304AB93E807008DE8070007ABC7
S11308F00ECB042000F0EAFF074601F04FF987B958
S113090023462A4612AD144603CCAC421860596003
S1130910224603F10803F6D1304613B0F0BD024E6F
S1130920FAE7024EF8E700BF80AFFFFF80ADFFFF9C
S11309301FB541F2640310210E4AD150FFF706FDA2
S11309404FF47A23B0FBF3F00B4B0E221860002116
S1130950684602F061FB01238DF8003040F2FF335A
S113096069460648ADF8023000F05DFA05B05DF85E
S113097004FB00BF008000403801002000800440D8
S11309800D4A0E4B10B5546A1B68A4B213FB004009
S113099080B2A0422CBF00240124094B1880094BCB
S11309A01C70134611B15A6A8242FCD1012242F2F0
S11309B014015A509A6110BD00800440380100208F
S11309C03401002036010020094B0A4A5869127884
S11309D000F001000AB108B9704738B9586A064BEB
S11309E01B88984234BF00200120704701207047C3
S11309F0008004403601002034010020430910B572
S1130A0007D0012B0FD00A4C0A4A022B14BF2346ED
S1130A10134600F01F0041B103F58053012202FA8E
S1130A2000F0186010BD044BF3E703F50053F5E73D
S1130A30608200406880004064800040F0B54AB1A4
S1130A40012530241D4E8D4004FB00640BB341F29C
S1130A501006A55130244443072904F1804404F5C9
S1130A60703419D80F2765688E00B74025EA07054A
S1130A7002FA06F63543656052B9012202FA01F121
S1130A8030220E4C02FB0040A3B141F21003C150CE
S1130A90F0BD42F21006DCE70F2701F18045083D66
S1130AA0E668AD00AF4026EA070602FA05F53543CD
S1130AB0E560E1E742F21003E9E700BF00C003404C
S1130AC0F0B5114A114C124E00F00105E3695F07BD
S1130AD013D40DB9334213D103EA00078F4207D16F
S1130AE00B4A1A40002A14BF6FF001000020F0BD29
S1130AF0013AEBD16FF00200F9E74FF0FF30F6E76F
S1130B006FF00100F3E700BF8096980000000340F7
S1130B100200010038B54FF4003141F26803104A75
S1130B20104CD15041F67133E5690122E36341F27F
S1130B300C03E2500223606100212361212005F4AB
S1130B408035FFF7BDFF18B901462120FFF7B8FF34
S1130B5042F20C030122E2500DB10023E36338BDDD
S1130B6000800040000003402DE9F04F4FF0010CDD
S1130B7041F204044FF440262F4D4FF4003E45F853
S1130B8004C02E4C2E4F44F820603026002406FB6F
S1130B900056F4653466346741F2680447F804E0AB
S1130BA041F67137274C0CFA00F0D4F81CE0E763E7
S1130BB0E768DFF8988047EA0C07AC46DFF89090C6
S1130BC0DFF890A0E7604BB9E2681EF4803F22F0A2
S1130BD00102E26000D0E36318462AE001F5005503
S1130BE025F4FF5525F01F056D1A9D4228BF1D46AB
S1130BF06161D4F81CB0AF081BF0040F17D1013F9A
S1130C003F0147F0605777660F4FB266F766C8F842
S1130C100000DCF834703842FBD00427C9F8000027
S1130C202944CAF800002A4427615B1BCBE74FF034
S1130C30FF30BDE8F08F00BF0000044000400440D6
S1130C4000800040000003401800034024100440CA
S1130C503420044028100440C369032B9FBF00EBD9
S1130C6083020133D160C36170470000C1692DE97B
S1130C70F043042967D84FF4803441F26403334AC3
S1130C80334D566E334FD450334BC5F80036C5F848
S1130C900476F5035CBF42F2640554512F4A304E8A
S1130CA01A60024652F80C4B5C600024A14222D127
S1130CB0214600226FF00308456815BB1346264AF7
S1130CC043EA046393601368506892684340534056
S1130CD08900234A8819824231D17350BFF34F8F60
S1130CE02049214BCA6802F4E0621343CB60BFF38E
S1130CF04F8F00BFFDE752F8043B46F8243001341F
S1130D00D4E72B68A1EB020E08FB023C134606EB6A
S1130D108E0E881AAF68A3EB0209C7F399074F45F3
S1130D2000EB030105D86A68012AC8D06D681A4629
S1130D30C3E75CF823104EF823100133EAE752F8B6
S1130D40044B6340C7E7BDE8F08300BF0080004068
S1130D5000C00740004E00A0004C00A0DEC0ECE53F
S1130D600C4C00A000ED00E00400FA05154B4FF414
S1130D708032586E41F26401C00358BF42F26400ED
S1130D8010B55A501049D1F8041658BF1A500A68C1
S1130D900E4B9A4213D10B690533B3F5007F0ED283
S1130DA0002214469A4205D351F82300031B5842EB
S1130DB0584110BD51F8220001324440F2E70020AE
S1130DC0F7E700BF0080004000C00740DEC0ECE54C
S1130DD038B50F4B4FF48032596E044641F264002B
S1130DE0C90358BF42F264011A500A48D0F80456A5
S1130DF058BF5A5034B1FFF7B9FF30B100206B68C7
S1130E00236038BD4FF4E020FBE74FF47E00F8E7A1
S1130E100080004000C00740036BDA0702D5036975
S1130E205B06F9D4704710B50446FFF7F5FF0122BD
S1130E3042F23003C2500B7948881B0243EA8043D4
S1130E40487A03434878002814BF40200020034315
S1130E50887A002814BF802000200343C87A002821
S1130E6014BF202000200343087B002814BF102057
S1130E7000200343487B002814BF082000200343BC
S1130E808879002814BF4FF4803000200343636046
S1130E9041F23003E2500A780AB90223E3600023E6
S1130EA0C87963620B7A497943EA8003002914BF45
S1130EB0102100210B43A3600AB10123E36010BD9C
S1130EC013B541F264034FF08061164AD1500123F7
S1130ED0042218460021FFF7B1FD00230093009B74
S1130EE0632B18DD0123022218460021FFF7A6FD1B
S1130EF000230193019BB3F5FA7F0FDB0A4B002219
S1130F001C68012311461846FFF798FDE04300F0E2
S1130F10010002B010BD009B0133DFE7019B0133E8
S1130F20E7E700BF0080004044C0034013B5044617
S1130F3022B10024009400F057F90446204602B080
S1130F4010BD000030B501B10139074CE568ED036F
S1130F50FCD4120743F0004302F0805218430243CA
S1130F6042EA0121616030BD0020024CF0B58DB031
S1130F7005AC84E80700069D1E469D4228BF1D4619
S1130F80129815B30BB3002700F5181000F24110A6
S1130F904402CDE90A37631B09930CAB43F8185D8F
S1130FA0029593E803008DE803000CAA059B12E95F
S1130FB0070000F0A5FCAE4207D93946721BA01BFE
S1130FC00DB0BDE8F04000F099BC0DB0F0BD30B5F7
S1130FD01D4691B001AC84E807000146DDE9022317
S1130FE0D8004ABF03326A0022F0030204A8FFF7C4
S1130FF09DFF04A800F00EF914992A4601F5181172
S113100001F241114C02611B002308A8FFF78EFF77
S113101004F5007100232A46491B0CA8FFF786FF3C
S11310200CA800F0F7F808A904A800F0CDF811B056
S113103030BD10B58CB005AC84E807000E9A02935D
S113104002F5181202F5A0725202CDE9092300221A
S113105006AB93E803008DE803000B920CAA059BF2
S113106012E9070000F04CFC0CB010BD0122054B46
S11310709A60DA68D203FCD4D86820F00F00000428
S1131080000C70470020024C2DE9F04B4FF0000893
S11310908AB003AC84E8070081461C464646059F97
S11310A007AD07F0805B049B434502D80AB0BDE856
S11310B0F08B139B13B9B31E012B0AD9129BCDE9F4
S11310C00794099700965BB195E807002346FFF75C
S11310D04DFFBBF1000F00D1A1440136A044E2E76B
S11310E0234695E80700FFF7A4FFF2E782B01FB597
S11310F004AC04E907000A9A029907938A4228BFBC
S11311000A46039B0798D90044BF033222F0030226
S113111022F070410D4A03F0E0431060099A0C4834
S113112002F0E04242F000520A430260002243F01F
S11311300053019C0B430749426084600B60064BDB
S11311401A6004B0BDE8104002B070470000024CC1
S11311500800024C1800024C3400024C3F22044B9D
S11311601A60102243F8142C03229A60704700BFBF
S11311703000024C024A13689B07FCD4704700BF3E
S11311803C00024C034B1B6813F0240F14BF0420D3
S1131190002070472800024C08B5FFF7F3FF084B06
S11311A01B6823F47F4323F0EF03002B14BF0423B5
S11311B0002303431EBF0122024B1A6008BD00BF77
S11311C03C00024CFCFFFF3F032208B5054B1860AE
S11311D019615A63FFF7C2FFFFF7CCFFBDE808406F
S11311E0FFF7DABF0000024C10B522F0704200F1A4
S11311F01004C0E90014826041B1826803F07043B6
S113120013438360029BC360204610BD836843F090
S11312108043F6E701234360C36843F02003C360BF
S1131220836843F0005383607047C368DB0658BF8C
S1131230C368C36803F00F03042B0ED8012202FA1B
S113124003F313F01A0F08D0C36801F01F0143EA37
S11312500123C3608368194481607047426810B5F4
S1131260182A034609D0202A1BD0102A28D1154A4F
S11312701268D40109D4012012E0124A12689001C4
S1131280F9D50A6842F008020A600F481A688242D7
S11312904FF000000DD10A6842F040020A60586025
S11312A010BD084A12685201E5D50A6842F00402EA
S11312B0EAE7064CA242F3D10A6842F08002EDE765
S11312C00720EDE70404024CC1030020C003002002
S11312D007B50B4607490968C90708D500210092DC
S11312E00246084600F024F903B05DF804FB01202F
S11312F0FAE700BF0404024C07B50B460749096826
S1131300C90708D5009201210246002000F010F917
S113131003B05DF804FB0120FAE700BF0404024CAB
S11313201FB5094C246864070CD5CDE900120021CF
S1131330069C0222CDE902340346084600F024F953
S113134004B010BD0120FBE70404024C37B5154678
S11313504A6804463AB18C680093096845EA040374
S1131360FFF742FF0446204603B030BD2DE9F04F9D
S1131370D3B0CDE90231042100238446CDE905131D
S113138007CA03AE07AB5E9D619F629C049683E827
S11313900700BCF1000F40F0C88031461846FFF743
S11313A05DFF0646002840F0BC805D9A0AAB07CA80
S11313B083E807005F9B609A494201F00F0800210F
S11313C052685B684FF0100A13445B4203F00F0944
S11313D07B680D915B420193AB681291DA0048BFC0
S11313E06B68524642BF033323F003036B60A36868
S11313F0DB0041BF6368033323F0030363605F9B37
S11314005B680093609BD3F804B0009B5B444B443F
S1131410CDE90E316B685B4203F00F03CDE9101385
S1131420636815915B4203F00F03CDE9131316AB08
S1131430184601F0F1FD5D9A52685AB97A684AB9C2
S1131440009A3AB9BBF1000F04D1D046CDE90A0A9B
S1131450CDF830B011234FF0005204A932A8FFF7A1
S113146075FF40F611034FF0005207A9FFF76EFF16
S113147042F611034FF000525C99FFF767FF44F600
S113148011034FF000520299FFF760FF412300223D
S11314905F99FFF75BFF4FEA092343F041034FF0E5
S11314A000526099FFF752FF4FEA082343F001030B
S11314B04FF000520AA9FFF749FF019B4FF0005279
S11314C01B0203F4706343F001033946FFF73EFF48
S11314D01038FFF79FFE00230DA91A461AA8FFF73C
S11314E035FF002329461A46FFF730FF002310A9D1
S11314F01A46FFF72BFF002321461A46FFF726FF63
S1131500002313A91A46FFF721FF002363991A4603
S1131510FFF71CFF1038FFF77DFE1AA932A8FFF76A
S113152053FE304653B0BDE8F08F0726F9E70000BC
S1131530F0B594465A688DB01C4613070646129DB2
S11315401BD1D2B16B689A4217D10D4B0D4A53F897
S1131550217009AB07CA83E80700CDE90633CDE95A
S11315600433CDE90253CDE90034624647F4807177
S11315703046FFF7FBFE0DB0F0BD0720FBE700BFD0
S113158074310000443100002DE9F0438DB09846D9
S1131590DDE91467DDE9165973688446180728D114
S11315A03BB37868834224D16B68102B21D1D9F8DE
S11315B00430102B1DD1104B53F821E00F4B53F87E
S11315C022400F4A09AB07CA83E8070044F0300100
S11315D0CDE90639CDE90433CDE90273CDE90056EE
S11315E0424641EA0E016046FFF7C0FE0DB0BDE879
S11315F0F0830720FAE700BF743100005031000087
S1131600443100000069704770B586B003AD0646EA
S113161085E80E00FFF7F6FF442804463AD87268BE
S113162000EB80039A4203D0062343439A4233D10A
S11316300B9BB3EB440F2FD10E9A93422CD1F3683A
S1131640012221463120FFF77DFC96E807000123A3
S1131650CDE900332346FFF717FD08230AAA0093B8
S113166007CA2346FFF7B3FC0C23009395E8070051
S11316702346FFF77BFC0A230DAA009307CA2346DF
S1131680FFF7A5FCFFF7F2FC002814BF032000209D
S113169006B070BD0120FBE70720F9E70138C0B2AE
S11316A006289ABF014B185C002070475032000096
S11316B00138C0B206289ABF014B185C002070475D
S11316C0573200000138C0B206289ABF014B185C9B
S11316D0002070475E3200002DE9F04F8146BBB018
S11316E003A880E80E0009F1FF339DF810A1049FC0
S11316F00D46DDF81480062B00F2E480DFE803F0E9
S1131700041E242A30363C006F4B1B68D80703D4D0
S113171001203BB0BDE8F08F012307930023BAF109
S1131720010FCDE908332DD0BAF1020F00F09380F8
S11317304846FFF7C7FF6324064630E0624B1B6848
S11317409907E5D50223E8E75F4B1B685A07DFD505
S11317500423E2E75C4B1B681B07D9D50823DCE7AD
S1131760594B1B68DE06D3D51023D6E7564B1B68AE
S11317709C06CDD52023D0E7534B1B685806C7D50C
S11317804023CAE7504B1B68D903C1D5079B484681
S113179043F4C0630793FFF781FF03240646132332
S11317A00422009307A94FF0005312A8FFF71CFD71
S11317B048F00053009429463A46FFF715FD4FF0D0
S11317C00C0B05460024DDF81481469B0BFB038BB0
S11317D0D8455ED1BAF1030F0BD14846FFF772FF2B
S11317E002464846FFF764FFBA426BD101382042F3
S11317F068D1002C5ED10323224600932846234659
S113180008A9FFF7F1FC04240546103D2846FFF71C
S113181001FD21462846FFF708FD489AB24228BF39
S113182032461446002A4BD00023479900930AA855
S1131830499BFFF7D9FC321B04D0002300931946BF
S1131840FFF7D2FC1038FFF7E5FC12A80AA9FFF74E
S1131850BBFC00205DE71C4B1A6892037FF558AF70
S11318601B68DB037FF554AF77B17C4204F00304BB
S1131870079B484643F4E0630793FFF70FFF2402F6
S113188044F0A30406468AE7B846042708AD3C465C
S1131890EEE7D8F8042014444AB103230093284601
S11318A0D8F80830D8F80010FFF79EFC054608F178
S11318B00C088DE714F0030418BFC4F10404A4E772
S11318C00AA8B8E7072024E70C04024C70B58AB0D4
S11318D007AC84E80E0003AD064694E8070085E8EB
S11318E00B00012302930EAB01930323009394E8AE
S11318F00E003046FFF7F0FE0AB070BD01F08CBB5D
S113190082B02DE9F0418AB005AD85E80700119356
S1131910079B149C5B0036D4DDF81880139B444568
S113192028BF444613F08053129A02D1944228BF30
S1131930144644B30F2C14D9029412AB93E8030059
S11319408DE80300119B95E80700FFF7CFFBFFF735
S113195005FCFFF70FFC0AB0BDE8F04102B0FFF749
S11319601BBC059E119F9BB10025A8EB0502042A10
S11319703B6828BF0422701909A90435099301F0B2
S113198040FBAC42F1D80AB0BDE8F04102B0704768
S11319902246394630460AB0BDE8F04102B001F0B3
S11319A030BB2422002101F037BB38B514460D4664
S11319B02422002101F030FB24F04002802A034657
S11319C002D0B4F5807F08D11846E20840F8044BF1
S11319D0294601F016FB002038BD6FF07100FBE7CB
S11319E030B50129016808BF012521F0400418BF62
S11319F00225802C8BB002D0B1F5807F25D1C90897
S1131A0002910021CDE90312102204300190CDE9A6
S1131A100521CDE90732099100F0AAF8044670B90E
S1131A20012D07AA04A901A80CD1FFF751FC054612
S1131A3000F0B4F860B9002D18BF6FF024042046FC
S1131A400BB030BDFFF758FCF1E76FF07104F6E717
S1131A506FF02404F3E72DE9F04F824691B08846F5
S1131A609946164612B31568DAF8003023F040029E
S1131A70802A02D0B3F5807F71D1DB08002405935E
S1131A801023CDE908341B9BCDE906490AF1040271
S1131A904344049202930DF11C0B444508D3002ED9
S1131AA063D00020356011B0BDE8F08F1546DBE748
S1131AB05DB11B9B1A9A1B5D525D013553401C9A04
S1131AC005F00F0513550134E7E7A8EB04070F2FC2
S1131AD01ED91B9B27F00F072344CDE90A371C9B13
S1131AE00C952344CDE90D370F9500F041F80028FB
S1131AF0D9D1CDF800B05B460DAA0AA904A8FFF716
S1131B000FFC039000F04AF860BB039B53BB3C44BA
S1131B101B9B1F191C9B1C44029BBB4201D14446C6
S1131B20BBE78DB91A9B4A4601215046FFF758FF7F
S1131B300028B8D109F1100212F8013D0133DBB2DB
S1131B4013700BB99145F7D11A9A17F8013B525DFE
S1131B500135534004F8013B05F00F05DCE76FF055
S1131B607100A0E76FF024009DE730469BE700007A
S1131B70094B00209A6E42F400529A66D3F8602210
S1131B8042F00102C3F86022D3F8602242F002025C
S1131B90C3F86022704700BF00800040094B00205A
S1131BA09A6E22F400529A66D3F8602222F001025F
S1131BB0C3F86022D3F8602222F00202C3F8602244
S1131BC0704700BF0080004000207047002070472D
S1131BD000207047002070470020704700207047A5
S1131BE00120704728231B68186970472823186848
S1131BF070474FF4004070470120704741F20600DF
S1131C0070470000004870474CE3070000487047E5
S1131C106CE307000048704786E207002DE9F047AF
S1131C204FF0806341F26409DFF82481012648F80B
S1131C3009304FF4007348F8093041F204033C4D75
S1131C400024EE5040F6AA6342F248026B6141F26E
S1131C500503384F3849AC60EC65EB602C61EC61EE
S1131C60EC64A950C7F83C46C7F85446C7F84C463C
S1131C70C7F84446C7F84846EB60AB684FF4A02A5F
S1131C80AB60FEF763FBD8F870302C4AC3F38023B3
S1131C903344B0FBF3F34FF4E11003F5E1435B018C
S1131CA0B3FBF0F3203B02EAC303EB6104223346A7
S1131CB005212046FEF7C2FE334632460621204661
S1131CC0FEF7BCFE14230422C7F83C364FF4C023AD
S1131CD01146C7F854A63046C7F84C363346FEF7CB
S1131CE0ADFE052303224FF0F0516B61144B48F80D
S1131CF0092014485E60996013495C629C631C640B
S1131D005C65C1F800A01C66DC6518670F48486074
S1131D10A1F5FE510C39C3F89040C3F88C400A6019
S1131D2041F2100202219E649950BDE8F08700BF81
S1131D300000064000C00340FFFF0100F8FF7F00E1
S1131D400000044068320000004004400200050026
S1131D5000800040094B586B10F0020007D00222AB
S1131D609A6203F50053343301201A607047DB6A2A
S1131D709B07FBD4024B0222F6E700BF000004409D
S1131D80342004407F2938B50546144624D8FFF78B
S1131D90E1FFA8B941F2062038BDE85C985401334C
S1131DA08B42FAD102220E49013B088863F30E10DC
S1131DB00C4B0880C3F8A0109A6424B90020EBE708
S1131DC00023094AECE7FFF7C5FF0028FBD0074AC8
S1131DD093699B06FCD5F1E741F20310DCE700BFF1
S1131DE000010020000004404003002000000640E1
S1131DF00E4BD86E40F2011398420FD040F20223EA
S1131E0098420DD00A4BC01A0A4B1B6883420AD071
S1131E102ABFC3F50073C01AC01870470020F3E747
S1131E204FF48070F0E70020704700BF00000440CA
S1131E303C0100203C0300202DE9F843089F0446A0
S1131E400D461646FBB9FFF7D3FFA84228BF284624
S1131E50224604EB000C4FF0010800244FF0020965
S1131E601B49DFF874E00B681A4F62451DD104B1B9
S1131E700B6006B1306041F20423A84234BF184617
S1131E800020BDE8F8832FB1FEF752FD002138464B
S1131E90FEF776FDFFF7ACFFA842D4D2002FF9D0AD
S1131EA0FEF792FD0028F5D0CDE71EF8034001337C
S1131EB0B3F5007F02F8014B04D10023C7F800906A
S1131EC00124D2E7B3F5807F08BFC7F80080F7E7A5
S1131ED03C030020101004403C01002070B5D1E9FF
S1131EE00152AA4205D290F840302B449B1A402B51
S1131EF010D9002012E00A6890F84040D65C90F8AF
S1131F0041200133224402F03F02013486548B60A5
S1131F1080F840408B689D42EDD8012070BD2DE9CA
S1131F20F8431D461746D1E901329B1A90F8402028
S1131F30044613449D420E469DF820909DF824804B
S1131F4056D9FFF7CBFF00285CD1152341F20200DC
S1131F5084F84630BDE8F88394F84120A25CFA5432
S1131F6094F841200133013202F03F0284F8412009
S1131F7094F84020013A84F8402094F840200AB1B3
S1131F809D42E9D1D6E90121914201D29D4231D845
S1131F909D42DAD129463846D4F88820FEF7C8FA9B
S1131FA0C4F88800B9F1000F04D02A463946E06C21
S1131FB0FEF7ACFBB8F1000F08D094F843308BB1B6
S1131FC02B463A463946A06CFEF7FCFA94F84330A7
S1131FD043B1E36DA26D2B449342E36524BF002318
S1131FE084F84330636D41F203002B446365B1E729
S1131FF00023C2E73268525CFA54B26801330132FA
S1132000B260BFE70020A5E77FB50023CDE9003328
S1132010082315460DEB03020446FFF780FF41F247
S113202003039842064626D194F8433063B108224C
S1132030E06C0DEB0201FEF769FB08230DEB0302D4
S11320401146A06CFEF7BEFA039A029B6A6094F8EC
S113205043202B605AB9094A934208D0084A934254
S113206005D00822E06C0DEB0201FEF74FFB6B6814
S1132070236500236365304604B070BDF70A0AF790
S1132080FC0404FC2DE9F347044658680D469046C9
S11320909946002843D08B0744D1FFF7A3FD216E56
S11320A0031D08EB010C63451DD800F11C07B94260
S11320B019D28B421E4638BF0E46BC4594BFC6EBB0
S11320C00C02C6EB0702711AF61A05EB010A06F1B7
S11320D0680051462044019200F093FFFF215046CE
S11320E0019A00F099FFFFF784FD226E031D9342CD
S11320F00BD308EB02010830814206D39B1AEA583D
S1132100C4F880204FF0FF32EA504246D9E9003645
S1132110206E2946B0470020226E4244226602B057
S1132120BDE8F08741F20200F9E72DE9F04100260D
S11321304FF0FF3804460F46154603F0200380F89D
S113214042301822FF21C0E91866A0F8406080F8E8
S11321504360A0F8446080F84660C0F88880683026
S113216000F05AFF88223146C4E91275C4F8808011
S1132170C4F8848004F1900000F04EFF84F81861E4
S1132180FFF728FD20B11FB941F20B00BDE8F08133
S1132190FFF71EFD30B1002DF6D0E06CFEF7A0FA7B
S11321A00020F3E7002DF8D12846EFE72DE9F04FA2
S11321B00027B7B0CDE90923D7F834900293044639
S11321C00E46409D0B97FFF711FD0369403B99456F
S11321D000F2E480B8460B9A029B9A425ED294F8CD
S11321E04630152BF8D8DFE813F08C00A5008500E5
S11321F0D6005B00420039007702420071024200BF
S113220058024200710276034B041600E103E50311
S11322100104FA024B044FF0000A636D0F2B6ED8D1
S1132220012710230CAA2046CDF804A0009709A981
S1132230FFF775FE41F203030690069A9A426BD1AA
S1132240D4F848B0FFF7E6FC80230221CDE900036F
S11322500DAA3B465846FEF787F9DEE70127D4E985
S113226014329A42C0F0A08184F84670B3E74FF06C
S1132270010AD4E91473BB420B9940D20A9AFF1A9B
S113228094F84030521A032F1A4440F22982032A48
S113229000F22982204609A9FFF720FE0020B4E0BD
S11322A00127636D072B96D808230CAA2046CDE995
S11322B0007709A9FFF733FE41F203030690069A5B
S11322C09A4229D1337843F0020333700C9B736034
S11322D0236D083B73620D9B0593002B5BD1052294
S11322E084F8462094F84520636642F0010284F89D
S11322F04520D6E70027636D072B40F204810123B4
S113230015E007AA204609A9FFF77EFE41F2030360
S11323100690069A9A4201D0069876E0089B079A9E
S1132320236500236365944B9A4234D1022384F8D5
S1132330463050E707AA204609A9FFF765FE41F297
S113234003030690069A9A42E6D194F84420079B28
S113235022B18A4A93421ED10E23E8E794F8422020
S1132360D7075AD594F84320002A56D184498B4282
S113237000F0BD8020D8834A93420CD011D8824A01
S1132380934200F0AD801ED87B4A934203D002F101
S1132390B642934217D1152384F8463041F2010026
S11323A033E07A4A93422BD00DD802F17E42023AAE
S11323B09342F0D0764AECE776498B4217D00BD89B
S11323C075498B4215D0152307A884F84630FFF7CA
S11323D0FBFB0028E2D116E0684A934218D0013A88
S11323E09342F0D96D4A9342D5D06D4AD1E7102378
S11323F09DE7112384F84630236DC4E91632EAE6DA
S1132400152384F8463041F2080037B0BDE8F08F58
S1132410FFF7DEFB00289FD0BDE75D4A934256D00C
S113242037D8584A934250D02ED802F1D54202F5FB
S1132430E01202F6F742934245D0534A93424AD0FF
S113244007A8FFF7C1FB002853D01423079884F88A
S11324504630C4F88C00FFF7B9FB94F8423080464C
S113246098067FF5B8AEB8F1000F3FF4B4AED8F8D3
S11324700430002B3FF4AFAE204698470690069BED
S1132480002B3FF4A8AE89E7464A9342D8D10423EF
S11324904DE7424A93421CD010D8394A934221D086
S11324A0364A9342CCD1FFF793FB00287FF473AFF5
S11324B094F84330002B3FF44FAF6CE7384A934213
S11324C0BED1092333E70B2331E706232FE7072384
S11324D02DE70D232BE794F84330002B7FF45BAFFB
S11324E0122324E794F84330002B7FF454AF1323D2
S11324F01DE7152384F8463094F84330002B82D02E
S113250041F2040081E701230CAA0093204608232A
S1132510019709A9FFF703FD41F203030690069A08
S11325209A427FF4F9AE0C9B03F07F43B3F1407FF2
S113253005D0152341F2090084F8463065E70D9B68
S1132540D90705930ED594F8423043F0010384F87B
S11325504230FFF73DFB00283FF4CDAE059BDA0582
S113256004D5C8E6FFF736FB0028F2D0152341F264
S11325700A0084F8463048E7EB17A603FC0404FC81
S1132580F70A0AF7F40A0AF4F30B0BF3F70909F74D
S1132590F60808F6FA0606FAF90707F9FD0303FD3B
S11325A0FE0101FEF50909F50CAA2046CDE90077E4
S11325B009A9FFF7B4FC41F203030690069A9A4274
S11325C07FF4AAAE06F1080A53460DF1300C0DF162
S11325D0480E624603CA724518605960944603F176
S11325E00803F6D1106818603378504643F00103AD
S11325F03370FFF701FB28B9152341F20C0084F86E
S1132600463002E700215046FFF7EAFA00287FF43B
S113261026AEF1E701230EAACDE9003320460823B4
S113262009A9FFF77CFC41F203030690069A9A423B
S11326307FF472AE337843F0040333700F9BB362BC
S113264073785B0726D5EB238DF8303017238DF88C
S11326503130A6238DF832305E2300208DF83330DC
S1132660236D6066C4F8843094F8453043F0020367
S113267084F84530EF686FB104222B680CA9B84781
S11326800822606E2B68EF680EA91044B847636E89
S1132690103363660C2384F84630636D072BB9D975
S11326A099E504230CAA2046CDE9007709A9FFF790
S11326B036FC41F203030690069A9A427FF42CAE4C
S11326C0226D0C9B042A059301D923660127636DAF
S11326D0032BE6D90A232AE600236366082326E6A9
S11326E097423FF6D7AD402F28BF4027974228BFD7
S11326F01746032F88BF27F003073B460CAA204642
S1132700CDE900AA09A9FFF70AFC41F203030690E8
S1132710069A9A427FF400AE94F84630082B04D10E
S1132720D5F808B0BBF1000F22D1042FC7F1040B78
S113273088BF4FF0000B03930CAB5A46D819FF2106
S113274000F06AFC039BBB440A2B1AD16B683BB1B3
S1132750012106F10800FFF743FA00283FF44CAFCB
S11327602B465A4620460CA9FFF78CFC069080E5C0
S11327703A462B68606E0CA9D847626E3A4462668A
S113278077E5052B20D173789F077FF572ADEB6851
S1132790002B3FF46EAD626E042A0BD80BEB0203E0
S11327A0062B07D90DAB9B1A1A68C4F884204FF086
S11327B0FF321A60EF685A462B68606E0CA9B8475E
S11327C0676E5F44676654E50C2B7FF452AD7378F3
S11327D058077FF54EADEF68002FECD149E594F82A
S11327E04230990607D5D4F88C00FFF7EFF98046FC
S11327F000283FF4D3AD6B683BB1012106F108001A
S1132800FFF7EEF900283FF4F7AE4FF0010A43E07A
S1132810002B5ED0B8F1000F5BD0D8F81030002B3D
S113282057D020469847DDE90A73FF1A94F84030E0
S11328303B4498423FF62EADD4E91472BF1A402FA0
S113284028BF40279F4228BF1F460CAA3B4620466C
S1132850CDE900AA09A9FFF762FB41F20303069040
S1132860069A9A427FF458AD94F842309A0613D5EA
S1132870B8F1000F3FF492ADD8F808B0BBF1000FE7
S11328803FF48CAD2B463A4620460CA9D847069017
S1132890069B002B7FF440ADD4E9142194F8423018
S11328A0914203F02003B3D3002B3FF428ADB8F1D9
S11328B0000F3FF424ADD8F80C30002B3FF41FADCB
S11328C02946204698470690069B002B3FF417ADF7
S11328D022E50120A7E700230CAACDE90033204616
S11328E0042309A9FFF71BFB41F203030690069A90
S11328F09A427FF411ADD4F88820634B9A4205D0F4
S1132900152341F2050084F846307EE5FFF760F9AF
S1132910002842D10123F37094F845309B0707D077
S1132920EF682FB104222B68104604F18401B847E4
S1132930236E002B34D06B6893B34FF0FF3304F154
S11329408001042205A80593029100F04BFB40B1DD
S1132950FFF74FF928B1D5E9003704220299104452
S1132960B84704F168070422394605A800F03AFB89
S1132970B0B1D5F80480FFF735F92B6804F16C0188
S113298014220830C047D5F80480FFF72BF904223D
S113299039462B681044C04702E0F378002BBBD1C2
S11329A00123B3700F2384F8463077E4012384F8BD
S11329B04330BCE494F81831002B7FF40CAC4A4645
S11329C01CAB204609A9FFF719F941F2060306904A
S11329D0069A9A4203D1152384F846309CE441F2C6
S11329E00303069A9A423FF4F6AB95E494F8443014
S11329F0002B7FF484ACCDE900330CAA402320469D
S1132A0009A9FFF78CFA41F203030690069A9A4249
S1132A107FF482ACE06CFDF77BFE94F81831A3B12F
S1132A2004F1B403009304F19403E06C14AA0CA918
S1132A30FDF7DAFD0690069BEBB10023F370152336
S1132A4041F2060084F84630DFE4FFF7C5F830B100
S1132A50D9F8383003F1240200920433E5E7E76C37
S1132A60FFF7D0F80390FFF7D1F8039B009014AA66
S1132A7038460CA9DCE70123F37084F844303EE4C3
S1132A8041F20700C1E400BFE320BBDEC0F30C0346
S1132A902DE9F04105460F4616460BB900F06CFAD5
S1132AA005F5005424F4FF5424F01F0405EB060834
S1132AB0A04507D8324639462846BDE8F0410223EE
S1132AC000F068BA204600F057FA04F50054EFE726
S1132AD037B5044615460191FFF788F80369A34208
S1132AE00BD8426963199A4207D32A4620460199B2
S1132AF003B0BDE83040FFF7C9BF03B030BD2DE9D6
S1132B00F041154607468846FFF770F80646FFF77A
S1132B1070F8C4196319B3F5002F0FD83FB9FFF744
S1132B2068F87369834202D9306900F025FA2A46AD
S1132B3041462046BDE8F041FFF7A8BFBDE8F0815B
S1132B407FB50346D0B16D460D4A02F110062C46FE
S1132B5010685168083203C4B2422546F7D15A1EA0
S1132B600DF10F010F3311F8010912F8014F8442DE
S1132B7004D19A42F7D1012004B070BD0020FBE7D4
S1132B80A8320000036913F0FE0F0CBF01200020DF
S1132B90704738B504460D46FFF7D2FF48B1636964
S1132BA0012B09D12046FFF7EDFF08B1A3692B6083
S1132BB038BD01202C60FBE70020F9E740F20463F4
S1132BC02DE9F041A4B0446B05460893FFF70EF8D5
S1132BD006462046FFF7B4FF18B9002024B0BDE82C
S1132BE0F0812046FFF7CEFF0028F6D0FEF7F6FF6F
S1132BF0002849D14FF00008D8F834703846FFF760
S1132C009FFF0028E9D03369403B9F42E5D8204626
S1132C100DF11F018DF81F80FDF791FB0028DCD01A
S1132C20204609A9FFF7B5FF0028D6D0099B3269D1
S1132C309A42D2D8AB42D0D3B3F5002FCDD80AA84C
S1132C40FDF74EFD099A2946521B0AA8FDF75EFDC1
S1132C500AA8FDF75DFD099A20320392FEF7BCFF36
S1132C600999039AC8B19DF81F30A3B1A36B03F16E
S1132C702400009004330AA8FDF7B6FC08900898D5
S1132C80B0FA80F04009A9E70121206AFDF754FB5E
S1132C900028AFD1A1E7BB6BE9E7CDE90421FEF73A
S1132CA0B1FF0390FEF7B2FFDDE90332059900900E
S1132CB0E1E70000F8B5D0E9006706F16046044694
S1132CC0456BFEF793FFB6F5004F01D90020F8BD20
S1132CD00369BB42FAD8B7F5002FF7D84033AB42AB
S1132CE002D8B5F5002F05D9FDF720FC80F00100CE
S1132CF0C0B2ECE7FDF71AFC20B12046BDE8F8406D
S1132D00FFF75CBF2846FFF71BFFB8B12846FFF763
S1132D1039FF0028DAD06B69002BD8D0022BECD114
S1132D20AB69C4F1040119444FF0FF322046FDF7AA
S1132D30FFFB034BC31A58425841C8E70120C6E7BA
S1132D40E320BBDE30B54FF0FF3289B005460C46B8
S1132D50FDF7EEFB0E4B984217D1FDF7EFFA40F268
S1132D60022000F0CAF81C22002101A800F054F946
S1132D70084B294668460093FDF76EFF68462146D6
S1132D80FDF76AFF6846FDF771FF002009B030BD0A
S1132D90E320BBDE010006434FF0FF3313B50446C6
S1132DA001A80193FEF714F830B9019BA3422CBF8C
S1132DB00020012002B010BD0020FBE710B504463E
S1132DC088B040F2022000F098F81C22002101A8EB
S1132DD000F022F9054B214668460093FDF73CFFBD
S1132DE06846FDF743FF002008B010BD0000034310
S1132DF0B1F5027F10B504460FD34FF402720021DF
S1132E0000F00AF904F5C87204F5A47104F12C0069
S1132E100023BDE81040FFF788B940F2052010BD3B
S1132E2013B50446009101462C30FFF7BFF9C4F8EE
S1132E30040218B141F20703984209D1A3784BB1B7
S1132E4040F2032040F20223E278002A08BF184629
S1132E5002B010BD40F20120FAE72DE9F04387B03B
S1132E600DF1080904460E46174600211022484673
S1132E701D46DDF8388000F0CFF800211C22C8F888
S1132E800010284600F0C8F832463B462146CDF8EB
S1132E90009004F12C00FFF789F923789A0744BFC6
S1132EA06268C8F80020DB0709D504F1080304F1BF
S1132EB0240253F8041B934245F8041BF9D12378E8
S1132EC040F20640002B18BF002007B0BDE8F08395
S1132ED04FF4027070474FF000534CF23C325A806A
S1132EE070474FF000534AF6C0305B8823F00F035D
S1132EF09BB21B1A5842584170474FF0005208B514
S1132F001080FFF7EEFF10B94FF20F03538008BD96
S1132F1008B5FFF7F2FFBFF34F8F0549054BCA68A9
S1132F2002F4E0621343CB60BFF34F8F00BFFDE7B1
S1132F3000ED00E00400FA0508B5FFF7D2FF30B950
S1132F404FF000534FF20F015A888A4203D14FF0D9
S1132F500053188808BD3AB91B8840F20220012B9F
S1132F6018BF4FF40070F5E74FF40070F2E74FF02C
S1132F7000531888704700004FF4003208B5044B22
S1132F809A66FDF7C7FDB0FA80F0400908BD00BF9E
S1132F9000900040072BF8B506460F4614461D4620
S1132FA001D90020F8BD01212020FDF727FD0121D2
S1132FB02120FDF723FD8CB144EA06039B07F0D1E1
S1132FC04FF40032064B31469A66284623463A4669
S1132FD0FDF7CAFDB0FA80F04009E3E70120E1E71C
S1132FE00090004030B50024A24201D1002007E047
S1132FF0035D01340D1915F8015CAB42F4D0581B84
S113300030BD431E0A4410B5914200D110BD11F8E1
S1133010014B03F8014FF7E702440346934200D102
S1133020704703F8011BF9E7F8B500BFF8BC08BC0A
S11330309E467047F8B500BFF8BC08BC9E46704772
S113304000000000D12A000000000000FF2A000058
S11330500400000700000D1013001A202630384029
S11330605000000007B0CD5E0100000000000C011C
S1133070DC3200000060000000000800F0001000D6
S11330804303000047030000B52C0000F12D0000AD
S1133090212E0000000000005B2E0000D12E000055
S11330A00000000013B779FAC925DDB7ADF3CFE00E
S11330B0F1B614B80101000000000000D83200008D
S11330C04000000000000C010000000000000000AF
S11330D000000000000000000000000000000000EC
S11330E0000000006A09E667BB67AE853C6EF372B8
S11330F0A54FF53A510E527F9B05688C1F83D9ABBF
S11331005BE0CD198000000000000000000000001A
S113311000000000000000000000000000000000AB
S1133120000000000000000000000000000000009B
S1133130000000000000000000000000000000008B
S1133140000000000000000000000000000000403B
S1133150000100000002000000040000000800005C
S1133160001000000020000000400000008000006B
S1133170000001000000000001000000FFFFFFFF4D
S1133180000000010000000000000000000000003A
S1133190FFFFFFFFFFFFFFFFFFFFFFFFFFFFFFFF3B
S11331A000000000FFFFFFFFFFFFFFFFBCE6FAADDA
S11331B0A7179E84F3B9CAC2FC6325516B17D1F2D9
S11331C0E12C4247F8BCE6E563A440F277037D8135
S11331D02DEB33A0F4A13945D898C2964FE342E2CF
S11331E0FE1A7F9B8EE7EB4A7C0F9E162BCE33573D
S11331F06B315ECECBB6406837BF51F5FFFFFFFFA2
S113320000000001000000000000000000000000B9
S1133210FFFFFFFFFFFFFFFFFFFFFFFC5AC635D88C
S1133220AA3A93E7B3EBBD55769886BC651D06B004
S1133230CC53B0F63BCE3C3E27D2604B7C310000F1
S1133240C00000000000000000001000200000008A
S113325010141C2030402040404040808040101416
S11332602020404020000000F00F100324000640FE
S11332703C010020130000000900000000010000D0
S11332800202000013000000F00F100324000640A7
S11332903C020020130000000900000000020000AE
S11332A001010000D3FFFFFFB814B6F1E0CFF3AD86
S11332B0B7DD25C9FA79B71300000000000000004B
S11332C0F07F1030400300203C0006400000000066
S10B32D065000000410000004C
S90302F109
